:400000000080002011000000850300008503000010B500F0D7F9C04670B512222C4B1A6000F07AFC2B4800F0EBFD012000F094FC302000F08BFB284A284B1A60284C80259A
:40004000ED052560274A116802230B431360264A264B1A600022264B1A60264A136808218B431360FA20C00000F022FC224800F063FBB8225201214B1A60214B214A1A6078
:40008000C0218900204A1160204A1A60882189011F4A11601F4A1A60802212061E4B1A608022D2021D4B1A6041231D4A136040211C4A11601C4A136042221C4B1A601C4939
:4000C000082000F027FB082000F018FB256070BD30001040001BB7000600008004010B400C020B4078002E402D3E00007C002E4064F02E406CF02E40DC0500000403014078
:400100000000014041FF00800003014040FF00800803014042FF008008010B4000010B402C010140200101401C01014004010140710A000010B572B60022284B1A600024FF
:400140000FE027486200131959000B00411889881A5AC31858880004104300F00DF90134E4B2012CEDD91E4801000C31443000F0D9F81C4A1C4B1A6099231B041B4A1360B8
:400180001B4A1360802109031A4A11601A4A13601A4A1B4B1A601B490B783C22934314221343DBB20B70184A117816230B43DBB213700622154B1A60154A164B1A60242217
:4001C000154B1A60154A164B1A602022154B1A60FFF722FF00F0C0F810BDC0466CF02E4004160000300300EE000002400001024000500F4008500F4010500F40720200004A
:400200002001204001700F4000700F4000000440B001D800080004400001044080100300080104401801044010B5064C2378002B07D1054B002B02D0044800E000BF012312
:40024000237010BD4801002000000000FC150000084B10B5002B03D00749084800E000BF07480368002B00D110BD064B002BFBD09847F9E7000000004C010020FC15000048
:40028000C00000200000000070B50F4B1A680F4C23689B1823600E4D2B6801332B600D4E0D49300000F07CFD0A2000F0F9F80D2000F0F6F8300000F06BF900232B6023607F
:4002C000022000F0D7F970BDAC010020A8010020A0010020B40100200016000010B562B600230B4A13600B4A13600B4A13600B4A136000F0C5F800F0ADF9094800F0E8F928
:4003000000F06CFC00F058F9024B1860FAE7C046B0010020AC010020A4010020A001002089020000F0B50025002711E0BB00C658F3B2FF22964308E06A008A181478A41932
:40034000527822700135013BDBB2002BF4D10137072FEBD9F0BDC0460323044A1360044A13600022034B1A607047C0463000304030003140000E3F4010B50A00002100F050
:4003800007FD10BD10B500F0D7FC03680C2B00D1FEE7FEE710B50300084A1068C318084A9A1A802A02DC054A136005E000F0C4FC0C2303600120404210BDC046C400002069
:4003C000C001002070B50F4E0F4D13E029686B68AC68002202E001C901C30432A242FAD1E868002202E0002102C304328242FAD11035013E002EE9D100F0A4FCFFF76EFFFE
:40040000FEE7C04601000000F016000010B50E4A136801218B43136000230AE0032B03D89A000A49505800E009489900094A885001332F2BF2D9FFF77DFE034A116801237B
:400440000B43136010BDC0460000104000000000850300000000002010B500F083F810BD10B500F02BF810BD10B5044A1368802109060B431360FFF7EFFF10BD000024403A
:4004800010B5064B1B78002B04D1FFF7E9FF0122024B1A70FFF7E8FF10BDC04664010020044B1B681F221340082BF9D0024B18607047C0460802244040022440154A164BCE
:4004C0001A600023154A13601549164A1160164A16490A6007201649086016490B6006381549086015490A60154A13600421154A1160154A1360154A1360154A1360154A15
:400500001360154A1360154A13601268144B1A807047C0460B000002000024404000244001000A0048002440070000800003244004032440100324404400244000022440CA
:400540000402244050002440880E2440C80E2440480F2440080F2440C80F2440880F244066010020064A1168064B0B40902109040B431360044B1A88044B1A607047C046DB
:4005800000010240FFFF0FFF66010020880F244070B50500002402E0FFF782FF0134285D0028F9D170BDC0460004000C014B18607047C04608012040024B18680004000C0D
:4005C0007047C046080120400004000C014B18607047C0461401204070B504000D0000F018FBAC40024B1C6000F017FB70BDC0460800204010B500F00CFB064A116801239B
:400600000B43136000F009FB18210120FFF7E4FF10BDC04600002040014B18607047C0463801204010B580229204074B1A600C22064B1A600220FFF7EFFF0548FFF7C4FFB7
:400640000020FFF7B1FF10BD0001204024012040FFFF000010B5064B1B78002B04D1FFF7E1FF0122024B1A70FFF7C4FF10BDC04668010020014B18607047C0463001204063
:400680008423014AD05070470000002010B5040000F0BFFA044A1168044B0B40A4031C43146000F0BAFA10BD10E400E0FF3FFFFF80229202014B1A607047C04600E100E009
:4006C00080229202014B1A607047C04680E100E010B50400FFF7F4FF2000FFF7D1FF0320FFF7D4FFFFF7E4FF10BDC046024B1B68012018407047C0460C002E401F231840B6
:400700001E3B8340014A13607047C04600E100E001BE704770B504000D001F2802D90020FFF7F6FF1034A40080239B059C4664442068256070BDC04610B5034B1B7B58434F
:4007400000F05EFA10BDC046C8000020F0B557464E46C0B483B0040000F05BFA0190E71E2D2F74D83F4B1B78DBB29C4208D83E4B1B78DBB29A463D4B1B78DBB2994631E0E9
:400780003B4B1B78DBB29C4208D83A4B1B78DBB29A46394B1B78DBB2994623E0374B1B78DBB29C4208D8364B1B78DBB29A46354B1B78DBB2994615E0334B1B78DBB29C42F9
:4007C00008D8324B1B78DBB29A46314B1B78DBB2994607E02F4B1B78DBB29A462E4B1B78DBB299462D4BDE5D2F2E09D92A2C07D919222B4B1A60052000F002FA192503E0C3
:40080000274B1D683F231D40B54206D9234BDA5D234B1A60052000F0F3F91F4B9C4664442378DBB21F4A13601F4B52461A601F4B4A461A600520FFF77FFFB5420AD2174BE8
:40084000DA5D174B1A60052000F0DAF902E00020FFF75EFF019800F0E0F903B00CBC91469A46F0BD40F3FF0F41F3FF0F42F3FF0F43F3FF0F44F3FF0F45F3FF0F46F3FF0F0B
:4008800047F3FF0F48F3FF0F49F3FF0F4AF3FF0F4BF3FF0F4CF3FF0F4DF3FF0F681600002CFF0B4028FF0B401CFF0B4020FF0B4010B504000F4A116801230B4313600E4A1D
:4008C0000E4B1A600E4A1368802109020B431360002809D100200CE00120FFF72DFFFFF705FF002804D1013C002CF5D1102000E0002010BD60F02E400220000078002E40AB
:4009000010002E40034B1868C0231B02184000D00120704700010B4010B50D4B1A6801218A431A601A68022082431A60094A10683024A043203C204310601068093CA04363
:40094000014311601A68802109060A431A6010BD00F02E4000FF2E4070B51D4B1B6801241C40002802D0012816D02BE0184B19680122914319601968022081431960154BF8
:4009800019682E3081432038014319601968093881430A431A6018E00D4B1A6802218A431A600C4A10680725A84301431160116830208143103801431160196801220A43E1
:4009C0001A6002E00020FFF7A3FE200070BDC04600F02E4000FF2E4010B500F01AF9044A1368C02109020B43136000F016F910BD00010B4010B500F00CF908490A68084BA0
:400A00001A408024E40122430A600A6813408022120213430B6000F000F910BD00010B40FF3FFFFF70B5050000F0F3F80400FFF769FF002803D0FFF7DDFF012100E0002133
:400A400008482840084A1568084B2B40184310601368012901D1FFF7BFFF200000F0DDF870BDC0460404040010020B40FBFBFBFF10B5244B1B685B0715D5234B5B685B0734
:400A80000ED5224B596A042001401F4C62688A4362605A6A82435A629B69002B00D098470420FFF7BFFF174B1B685B0518D5164B5B685B0510D5154B596A8022D20011407C
:400AC000114842688A434260596A114A0A405A62DB69002B00D098478020C000FFF7A2FF084B1B685B030CD5074B5B685B0304D5064B1B6A002B00D098478020C002FFF7E2
:400B000091FF10BD10020B40DC0000206C010020FFFBFFFF0004000C014B18607047C046480120400004000C014B18607047C046540120400004000C014B18607047C04669
:400B40004C01204070B504000D0000F062F8AC40024B1C6000F061F870BDC0460800204010B500F056F8064A116802230B43136000F053F818210220FFF7E4FF10BDC046BB
:400B800000002040014B18607047C0467801204010B50E4C8023DB042360236823600020FFF7B8FF236823600C22094B1A600120FFF7E8FF3122074B1A60FA208000FFF7C5
:400BC000B1FF0548FFF7B6FF10BDC046400120406401204068012040E703000010B5064B1B78002B04D1FFF7D3FF0122024B1A70FFF7B6FF10BDC0469401002000000000C3
:400C00000230800803D00138FDD1C046C046C0467047EFF3108072B6704780F310887047002243088B4274D303098B425FD3030A8B4244D3030B8B4228D3030C8B420DD335
:400C4000FF22090212BA030C8B4202D31212090265D0030B8B4219D300E0090AC30B8B4201D3CB03C01A5241830B8B4201D38B03C01A5241430B8B4201D34B03C01A52412F
:400C8000030B8B4201D30B03C01A5241C30A8B4201D3CB02C01A5241830A8B4201D38B02C01A5241430A8B4201D34B02C01A5241030A8B4201D30B02C01A5241CDD2C309FF
:400CC0008B4201D3CB01C01A524183098B4201D38B01C01A524143098B4201D34B01C01A524103098B4201D30B01C01A5241C3088B4201D3CB00C01A524183088B4201D358
:400D00008B00C01A524143088B4201D34B00C01A5241411A00D20146524110467047FFE701B5002000F006F802BDC0460029F7D076E770477047C046014B18687047C0464A
:400D4000440100200E4B70B500251E000D4CE41AA410A54204D0AB00F35898470135F8E700F0B4FC084B00251E00084CE41AA410A54204D0AB00F35898470135F8E770BD8F
:400D8000D8160000D8160000D8160000E016000003008218934202D019700133FAE770470EB410B59DB002A9029008610B48822488604861012040421FABC881084804CB01
:400DC000A400006801938C8100F06EF80023029A13701DB010BC08BC03B01847FFFFFF7F44010020F0B58E6885B007000C00039201939E4243D890238A89DB001A423ED04C
:400E000003250969236801985B1A029363695D43EB0F5D19029B6D1001331B18AB4200D91D00530510D52900380000F041FB061E14D0029A216900F0D0FAA289194B134016
:400E400080221343A38112E02A00380000F090FB061E0CD12169380000F0DEFA0C23402201203B60A38940421343A38117E0029B2661F61826606561019EED1AA560019BCB
:400E8000B34200D21E0032000399206800F0AEFA0020A3689B1BA36023689E19266005B0F0BDC0467FFBFFFFF0B59FB0029005938B890F0016001B0610D50B69002B0DD1F9
:400EC000402100F0F5FA38603861002804D10C23029A01381360D8E040237B61002306AD6B6120336B761033AB7634002378002B03D1A31B049312D003E0252BF9D00134A6
:400F0000F4E7A31B320039000298FFF76BFF431C00D1B4E06A69049B944663446B612378002B00D1ABE00122002352426A6002A95432521801342B60EB60AB601370AB6526
:400F4000534E21780522300000F03CFA002807D00123801B83402A68013413432B60EFE72B68DA0604D55322202102A8121811701A0704D553222B2102A8121811702278BA
:400F80002A2A03D0099B00200A210EE0059A111D12680591002A01DB099204E05242EA60022213432B6001340BE02278303A092A04D84B4301349B180120F6E7002800D049
:400FC000099323782E2B1ED163782A2B0AD1059B02341A1D1B680592002B01DA01235B42079310E000230A201A0001346B6021783039092904D84243013452180123F6E753
:40100000002B00D00792234E21780322300000F0D9F9002806D04023801B83402A68013413432B60217806221B48661C297600F0C9F9002812D0194B002B06D10722059B64
:40104000073393430833059314E005AB00933A00134B2900029800E000BF07E005AB00933A000F4B2900029800F08AF80390039B013304D06B69039A9B186B6135E7BB89E0
:401080000B985B0601D5012040421FB0F0BDC046981600009E160000A216000000000000E50D0000F7B5170001938A680B6900900C00934200DA130022003B60433212784E
:4010C000002A01D001333B6023689B0602D53B6802333B60062523681D401ED0230043331B785A1E9341226892061CD53020E1184331087021005A1C45310978A218433232
:40110000023311700FE022000123193201990098089EB047431C0ED00135E3683A689B1A9D42F0DBDAE72200019943320098089DA847431C02D10120404220E00623206847
:40114000E1683A6803400025042B03D18D1AEB43DB171D40A3682269934201DD9B1AED180027BD420AD0220001231A3201990098089EB047431CDED00137F2E70020FEBD98
:40118000F0B58BB006920A0043320793059004920A7E0C00109B6E2A00D1ABE011D8632A22D009D8002A00D1B5E0582A00D0C5E045310A70814A4FE0642A1DD0692A1BD08D
:4011C000BCE0732A00D1AAE009D86F2A29D0702A00D0B3E0202209680A43226037E0752A1FD0782A33D0A9E00E001A684236111D196013683370A4E021681A68080606D452
:40120000490604D5111D19600023D55E02E0111D19601568002D3BDA2D23049A6D42137036E021681A68080606D4490604D51568111D1960ADB202E0111D196015685F4BBD
:40124000227E039308276F2A1DD00A271BE022007821453211705A4A19680392081D226818600D68100602D4500600D5ADB2D30702D520231A4322601027002D03D120238A
:4012800022689A4322602300002243331A7002E00A274A4B03936368A360002B09DB0422216891432160002D05D1049E002B11D07BE0002D79D0049E28003900FFF736FD33
:4012C000039B013E5B5C280033703900FFF7A8FC051EF1D1082F09D12368DB0706D563682269934202DC3023013E3370049B9B1B23612BE009681A68080607D4490605D557
:40130000111D19601368A28A1A8004E0111D1960136862691A600023049E236116E01A68111D1960166800216268300000F04AF8002801D0801B6060636803E026004236A7
:401340003270012323610023049A1370079B09AA00932100069B0598FFF7A4FE431C02D10120404227E02369320006990598079DA847431CF4D0236800259B070FD4099B9B
:40138000E068984217DA180015E022000123193206990598079EB047431CE1D00135E368099A9B1A9D42F0DBE9E72600039B42361B7833708EE70BB0F0BDC046A91600002D
:4013C000BA160000C9B28218904204D003788B4202D00130F8E700207047002310B59A4203D0CC5CC4540133F9E710BD10B5884202D98B18984201D3002305E09B1A013AF6
:4014000008D3995C8154FAE7934203D0CC5CC4540133F9E710BD000070B50500002944D00C1F2368002B00DAE418280000F0D8F81E4A13681100002B02D16360146031E01D
:40144000A3420DD92268A018834203D118685B688218226063600C6024E0A24203D813005A68002AF9D11E689819A0420BD12168711858181960824214D110685268411888
:4014800019605A600EE0A04202D90C232B6009E021686018824203D1106852684118216062605C60280000F09CF870BD9C010020032370B5CD1C9D43083506000C2D01D28F
:4014C0000C2501E0002D01DBA94202D90C23336048E0300000F084F8234B1C681A002100002913D00B685B1B0DD40B2B02D90B60CC181EE08C4202D1636813601AE04B6898
:4015000063600C0016E00C004968E9E7174C2368002B03D1300000F051F820602900300000F04CF8431C18D00323C41C9C43A0420DD12560300000F054F8200007220B3095
:40154000231D9043C31A0ED05A42E2500BE0211A300000F033F8431CEBD10C233000336000F03FF8002070BD9C01002098010020F8B506000C001500002904D11100FFF78E
:4015800097FF040018E0002A03D1FFF745FF2C0012E000F027F885420ED929003000FFF787FF071E07D021002A00FFF716FF21003000FFF731FF3C002000F8BD002370B58F
:4015C000064C050008002360FEF7E4FE431C03D12368002B00D02B6070BDC046BC010020704770470B1F1A68101F002A04DA891804390B68D0180438704700000000000061
:401600002575000000300F40000400400F4000043AC058045F011801B401E008EA015B80D48003028702AB80C040E010EA8017043A404510C404CE08D00486409E40AB04B2
:40164000B510EC080101100103300F4001310F4003330F4002400F4006410F4006420F4005430F4002600F40030405060708090A0B0C0E0F101112131415161718191B1CA4
:401680001D1E1F2021222325262728292A2B2E2F3031323334354300232D302B2000686C4C00656667454647003031323334353637383941424344454600303132333435A3
:4016C000363738396162636465660000F8B5C046F8BC08BC9E467047510200000D040000F8B5C046F8BC08BC9E4670472902000000170000C00000208800000078000000A5
:4017000000000000C0010020010000000000C05D80BB000030000000006CDC02F00000000404040000000000000000000000000000000000000000000000000000000000F9
:4017400000000000961600000000000000000000000000000000000000000000000000000000000000000000000000000000000000000000000000000000000000000000BD
:4017800000000000E4000020000000000000000000000000000000000000000000000000000000000000000000000000000000000000000000000000000000000000000025
:4017C00000000000000000000000000000000000000000000000000000000000000000000000000000000000000000000000000000000000000000000000000000000000E9
:4018000000000000000000000000000000000000000000000000000000000000000000000000000000000000000000000000000000000000000000000000000000000000A8
:401840000000000000000000000000000000000000000000000000000000000000000000000000000000000000000000000000000000000000000000000000000000000068
:401880000000000000000000000000000000000000000000000000000000000000000000000000000000000000000000000000000000000000000000000000000000000028
:020000040003F7
:0200000490303A
:02000000605B43
:0200000490402A
:4000000000000000000000000000000000000000000000000000000000000000000000000000000000000000000000000000000000000000000000000000000000000000C0
:400040000000000000000000000000000000000000000000000000000000000000000000000000000000000000000000000000000000000000000000000000000000000080
:0200000490501A
:0C00000000021A1711AA00011A1E720556
:0200000490600A
:0100000001FE
:00000001FF