:400000000080002011000000690400006904000010B500F049FAC04670B51222394B1A6000F054FC384801F0F3F9012000F06EFC302000F065FB354A354B1A60354C802589
:40004000ED052560344A116802230B431360334A334B1A600022334B1A60334A136808218B431360FA20C00000F0FCFB2F4800F03DFBB82252012E4B1A602E4B2E4A1A6050
:40008000802149002D4A11602D4A1A60C02189002C4A11602C4A1A602C492D4A11602D4A1A60E82149012C4A11602C4A1A60882189012B4A11602B4A1A60802212062A4B8D
:4000C0001A608022D202294B1A604223284A13604021284A11600131274A1160274A13604522274B1A60023A264B1A600132264B1A602649082000F0C1FA082000F0A8FA08
:40010000256070BD30001040001BB7000600008004010B400C020B4078002E402D3E00007C002E4064F02E406CF02E40DC050000080301400000014042FF00800003014052
:4001400040FF00800403014041FF0080007FBB001403014045FF00800C03014043FF00801003014044FF008008010B4000010B4038010140300101402401014020010140E5
:400180001C0101400801014004010140250A000010B572B60022304B1A6000240FE02F486200131959000B00411889881A5AC31858880004104300F051F90134E4B2012C80
:4001C000EDD926490C3126482C3000F01DF9254A254B1A6099231B04244A13602449254A1160254A1360A221C903244A1160244A1360244A136080229205234B1A60234ABB
:40020000234B1A6023490B783C22934314221343DBB20B70204A117816230B43DBB2137006221E4B1A601E4A1E4B1A6024221E4B1A601E4A1E4B1A6020221E4B1A60503224
:400240001D4B1A60D22252031C4B1A60FFF7E4FE00F0F4F810BDC0466CF02E40181E000018200000300300EE00000240000102400000EE030003024000500F4008500F4091
:4002800010500F4030500F4038500F40A20200006001204001700F4000700F4000000440B001D80008000440000104408010030008010440180104400003044008030440D4
:4002C00010B5064C2378002B07D1054B002B02D0044800E000BF0123237010BD48010020000000000C1E0000084B10B5002B03D00749084800E000BF07480368002B00D1EF
:4003000010BD064B002BFBD09847F9E7000000004C0100200C1E0000C00000200000000010B50B4B1A6852000A4B1A600A4C0B49200001F03DF90A2000F09CFC0D2000F0F5
:4003400099FC200000F00EFD012000F033FC10BDB4010020AC010020B8010020101E000010B50A2000F086FC0D2000F083FC034800F0F8FC022001F00DF810BD141E0000D4
:4003800030B583B062B600231A4A13601A4A13601A4A136001AC237000F0FCFB00F050FD00F03EF900F056FC00F070FD00F0E2FF134800F02DFC22000121012000F0D6FDCE
:4003C000104801F015F8002501AB187884B2A54206D0642C03D900F0E1FC250000E0250000F0C8F8034B186000F076FF024B1860EAE7C046B4010020B0010020AC01002006
:400400002103000061030000F0B50025002711E0BB00C658F3B2FF22964308E06A008A181478A419527822700135013BDBB2002BF4D10137092FEBD9F0BDC0460323044AF7
:400440001360044A13600022034B1A607047C0463000304030003140000E3F4010B50A00002101F09DF810BD10B501F06DF803680C2B00D1FEE7FEE710B50300084A1068A6
:40048000C318084A9A1A802A02DC054A136005E001F05AF80C2303600120404210BDC046C4000020D801002070B50F4E0F4D13E029686B68AC68002202E001C901C30432F3
:4004C000A242FAD1E868002202E0002102C304328242FAD11035013E002EE9D101F03AF8FFF74EFFFEE7C04601000000F420000010B50E4A136801218B43136000230AE074
:40050000032B03D89A000A49505800E009489900094A885001332F2BF2D9FFF739FE034A116801230B43136010BDC04600001040000000006904000000000020034A117871
:4005400080235B420B43DBB21370704770000F40014B18707047C04683000F40014B1878C0B2704763000F40014B18607047C04600200F40024B1B78024B18687047C046F3
:4005800000000F4000210F40014B18687047C04600210F40014B18607047C04680200F40014B18607047C046C0200F4010B501E0FFF7EAFFFFF7D2FF4306F9D410BDC0462E
:4005C00010B515490B780722934305221343DBB20B700B780322934308221343DBB20B70FFF7E4FF02204042FFF7D4FF0020FFF7BBFF0020FFF7ACFFFFF7B0FFFF20FFF73A
:40060000CFFF00F00EFF054A117810230B43DBB2137000F00AFF10BD70000F4093000F4010B5064B1B78002B04D1FFF7C9FF0122024B1A70FFF782FF10BDC04664010020EF
:40064000024B1B68012018407047C0460C002E401F2318401E3B8340014A13607047C04600E100E01F2318401E3B8340014A13607047C04680E100E001BE704770B50400F7
:400680000D001F2802D90020FFF7F6FF1034A40080239B059C4664442068256070BDC04670B504000E00032902D90020FFF7E4FF1F2C02D90020FFF7DFFF03252540ED0040
:4006C000063500F0AEFEA408A400074B9C46644421680323AB4099430B003100A9401943216000F0A2FE70BD00E400E010B5034B1B7B584300F08CFE10BDC046C800002085
:40070000F0B557464E46C0B483B0040000F089FE0190E71E2D2F74D83F4B1B78DBB29C4208D83E4B1B78DBB29A463D4B1B78DBB2994631E03B4B1B78DBB29C4208D83A4B11
:400740001B78DBB29A46394B1B78DBB2994623E0374B1B78DBB29C4208D8364B1B78DBB29A46354B1B78DBB2994615E0334B1B78DBB29C4208D8324B1B78DBB29A46314B49
:400780001B78DBB2994607E02F4B1B78DBB29A462E4B1B78DBB299462D4BDE5D2F2E09D92A2C07D919222B4B1A60052000F030FE192503E0274B1D683F231D40B54206D91E
:4007C000234BDA5D234B1A60052000F021FE1F4B9C4664442378DBB21F4A13601F4B52461A601F4B4A461A600520FFF77FFFB5420AD2174BDA5D174B1A60052000F008FE54
:4008000002E00020FFF738FF019800F00EFE03B00CBC91469A46F0BD40F3FF0F41F3FF0F42F3FF0F43F3FF0F44F3FF0F45F3FF0F46F3FF0F47F3FF0F48F3FF0F49F3FF0F5E
:400840004AF3FF0F4BF3FF0F4CF3FF0F4DF3FF0F6C2000002CFF0B4028FF0B401CFF0B4020FF0B4010B504000F4A116801230B4313600E4A0E4B1A600E4A136880210902D8
:400880000B431360002809D100200CE00120FFF72DFFFFF7D5FE002804D1013C002CF5D1102000E0002010BD60F02E400220000078002E4010002E40034B1868C0231B0222
:4008C000184000D00120704700010B4010B50D4B1A6801218A431A601A68022082431A60094A10683024A043203C204310601068093CA043014311601A68802109060A43BC
:400900001A6010BD00F02E4000FF2E4070B51D4B1B6801241C40002802D0012816D02BE0184B19680122914319601968022081431960154B19682E308143203801431960B4
:400940001968093881430A431A6018E00D4B1A6802218A431A600C4A10680725A84301431160116830208143103801431160196801220A431A6002E00020FFF77DFE2000CC
:4009800070BDC04600F02E4000FF2E4010B500F048FD044A1368C02109020B43136000F044FD10BD00010B4010B500F03AFD08490A68084B1A408024E40122430A600A6859
:4009C00013408022120213430B6000F02EFD10BD00010B40FF3FFFFF70B5050000F021FD0400FFF769FF002803D0FFF7DDFF012100E0002108482840084A1568084B2B40EE
:400A0000184310601368012901D1FFF7BFFF200000F00BFD70BDC0460404040010020B40FBFBFBFF10B5244B1B685B0715D5234B5B685B070ED5224B596A042001401F4CA3
:400A400062688A4362605A6A82435A629B69002B00D098470420FFF7BFFF174B1B685B0518D5164B5B685B0510D5154B596A8022D2001140114842688A434260596A114A0F
:400A80000A405A62DB69002B00D098478020C000FFF7A2FF084B1B685B030CD5074B5B685B0304D5064B1B6A002B00D098478020C002FFF791FF10BD10020B40DC000020FC
:400AC00068010020FFFBFFFF0004000C014B18607047C046080120400004000C014B18607047C046140120400004000C014B18607047C0460C01204070B504000D0000F051
:400B000090FCAC40024B1C6000F08FFC70BDC0460800204010B500F084FC064A116801230B43136000F081FC18210120FFF7E4FF10BDC04600002040014B18607047C04627
:400B40003801204010B50E4C8423DB04236022680423134323600020FFF7B6FF236823600C22084B1A600120FFF7E6FF3122064B1A600648FFF7B0FF0548FFF7B5FF10BD85
:400B800000012040240120402801204087130000C309000010B5064B1B78002B04D1FFF7D1FF0122024B1A70FFF7B4FF10BDC04690010020014B18607047C04630012040B8
:400BC0008423014AD05070470000002010B5040000F027FC044A1168044B0B40A4031C43146000F022FC10BD10E400E0FF3FFFFF80229202014B1A607047C04600E100E0F0
:400C000080229202014B1A607047C04680E100E010B50400FFF7F4FF2000FFF7D1FF0320FFF7D4FFFFF7E4FF10BDC04610B500F083F810BD10B500F02BF810BD10B5044AD5
:400C40001368802109060B431360FFF7EFFF10BD0000244010B5064B1B78002B04D1FFF7E9FF0122024B1A70FFF7E8FF10BDC04692010020044B1B681F221340082BF9D02D
:400C8000024B18607047C0460802244040022440154A164B1A600023154A13601549164A1160164A16490A6007201649086016490B6006381549086015490A60154A1360C1
:400CC0000421154A1160154A1360154A1360154A1360154A1360154A1360154A13601268144B1A807047C0460B000002000024404000244001000A00480024400700008090
:400D000000032440040324401003244044002440000224400402244050002440880E2440C80E2440480F2440080F2440C80F2440880F244094010020064A1168064B0B4084
:400D4000902109040B431360044B1A88044B1A607047C04600010240FFFF0FFF94010020880F244070B50500002402E0FFF782FF0134285D0028F9D170BDC0460004000CE8
:400D8000014B18607047C046880120400004000C014B18607047C046940120400004000C014B18607047C0468C01204070B504000D0000F036FBAC40024B1C6000F035FB99
:400DC00070BDC0460800204010B500F02AFB064A116804230B43136000F027FB18210420FFF7E4FF10BDC04600002040014B18607047C046B801204010B50E4C8023DB0417
:400E00002360236823600020FFF7B8FF236823600C22094B1A600120FFF7E8FF3122074B1A6080204000FFF7B1FFFF20FFF7B6FF10BDC04680012040A4012040A80120401B
:400E400010B5064B1B78002B04D1FFF7D5FF0122024B1A70FFF7B8FF10BDC0469601002010B50A20FFF7F4FB10BDC04610B500F01DF810BD10B5044A1368802109060B4304
:400E80001360FFF7EDFF10BD0000254010B5064B1B78002B04D1FFF7E9FF0122024B1A70FFF7E8FF10BDC0469801002010B50024194B1C60194A1A4B1A601A4B1A4A13607A
:400EC0001A4A14601A491B4A11601B4A13601B4B1C600A20FFF7C6FB03210A20FFF7E0FB17490A20FFF7CAFB164B1C60164B1C605222FF32154B1A60154B1C60154B1C60F1
:400F0000154B1C60154B1C70154B1C70154B1C80154B00221A7010BD0000254000080040600025400701008000032540040325401000FE0010032540000225400402254002
:400F40009D0F0000C80E2540880E2540480F2540080F2540C80F2540880F2540CC010020BE010020C0010020C801002070B506000D00141E0BD00A20FFF774FB044B1C60EA
:400F8000044B1E80044B1D800A20FFF761FB70BDC4010020CA010020BC01002070B5AB4B1B68002B00D09847A94B1C88A94B1D68A94B1E680223FF331D4238D0A74A1368D5
:400FC0005B005B081360A64A137820218B431370117810230B43DBB21370A24B1B68DB060CD4A14B1A789A4B1B889A420CD09C4A117808230B43DBB2137005E0984A117862
:4010000002230B43DBB21370984A1168984B0B4013600023974A1360924A1360964A13708E4A1368802109060B4313600AE1F30602D50022914B1A600A23334200D192E02C
:401040008F4B1B685B0758D58E4B1A688A4B1B78002B17D0012B49D18B4B1B88002B0DD001218A4B19608A4B1B681B19D2B21A700134854A1388013B13803AE00222834B64
:401080001A6036E0834B1B889A422BD201217F4B1960814B1B889A4202D29B1A9BB200E0002379490B80072B03D80121724B197014E0082B09D16D490B68A02000020343D9
:4010C0000B6000216B4B196008E068490B688020800103430B600821664B1960624B1A70140006E00222694B1A6002E00020FFF7C3FA0422694B1A6035E05C4B1B689B049A
:4011000031D5B3070DD5664B1B681F211940574A1068574B03401360012014E00821012011E0594B1988083989B219800829F5D8002008E0564B1B681B19524A1268D2B22D
:401140001A70013401390029F4D1002808D1474A1368802109020B4313600022454B1A600C224E4B1A60B3074BD5EB0615D50023404A13603B4A13603B4B1B789C4201D10B
:40118000022300E00A232B40354A11780B4320218B4313700022384B1A706B062FD5304A117820230B43DBB213702F4B1B781C003C4A1268D20612D5364A1288D31A324AF7
:4011C0001380394B1A68802149020A431A601968364A0A401A601022224B1A6002E00422244B1A600122324B1A603249194B196031490868102303430B60244B1A60154B4B
:401200001D60154B1B685B071CD51F4B1B88002B0CD01F4B1B681B191B78DBB2274A13600134194A1388013B138002E0FF22234B1A60234B1B681F221340082BE5D10F3A1E
:40124000204B1A60024B1C8070BDC0469C010020C0010020400F2540000E254000002540BE010020880F2540C801002060002540FF5FFFFFC80F2540CC010020880E25403A
:40128000CC0F254040032540A00100206C002540C4010020CA010020BC010020C00F2540080325406400254004022540FFFFFEFF800E2540FF0F0000480F254040022540D0
:4012C00008022540800F25400004000C014B18607047C04648012040024B18680004000C7047C046480120400004000C014B18607047C0465401204070B504000D0000F0A2
:4013000090F8AC40024B1C6000F08FF870BDC0460800204010B500F084F8064A116802230B43136000F081F818210220FFF7E4FF10BDC04600002040014B18607047C0462D
:401340007801204010B580229204074B1A600C22064B1A600220FFF7EFFF0548FFF7C4FF0020FFF7B1FF10BD4001204064012040FFFF000010B5064B1B78002B04D1FFF730
:40138000E1FF0122024B1A70FFF7C4FF10BDC046A2010020014B18607047C046700120408823014AD05070470000002010B5040000F037F8044A1168044B0B40A4051C4374
:4013C000146000F032F810BD10E400E0FFFF3FFF8022D202014B1A607047C04600E100E08022D202014B1A607047C04680E100E010B50400FFF7F4FF2000FFF7D1FF0320D3
:40140000FFF7D4FFFFF7E4FF10BDC046000000000230800803D00138FDD1C046C046C0467047EFF3108072B6704780F310887047002243088B4274D303098B425FD3030A2E
:401440008B4244D3030B8B4228D3030C8B420DD3FF22090212BA030C8B4202D31212090265D0030B8B4219D300E0090AC30B8B4201D3CB03C01A5241830B8B4201D38B03C8
:40148000C01A5241430B8B4201D34B03C01A5241030B8B4201D30B03C01A5241C30A8B4201D3CB02C01A5241830A8B4201D38B02C01A5241430A8B4201D34B02C01A524173
:4014C000030A8B4201D30B02C01A5241CDD2C3098B4201D3CB01C01A524183098B4201D38B01C01A524143098B4201D34B01C01A524103098B4201D30B01C01A5241C308C2
:401500008B4201D3CB00C01A524183088B4201D38B00C01A524143088B4201D34B00C01A5241411A00D20146524110467047FFE701B5002000F006F802BDC0460029F7D097
:4015400076E770477047C046014B18687047C046440100200E4B70B500251E000D4CE41AA410A54204D0AB00F35898470135F8E700F0AEFD084B00251E00084CE41AA41004
:40158000A54204D0AB00F35898470135F8E770BDDC200000DC200000DC200000E420000003008218934202D019700133FAE770470EB410B59DB002A9029008610B48822455
:4015C00088604861012040421FABC881084804CBA400006801938C8100F06EF80023029A13701DB010BC08BC03B01847FFFFFF7F44010020F0B58E6885B007000C00039278
:4016000001939E4243D890238A89DB001A423ED003250969236801985B1A029363695D43EB0F5D19029B6D1001331B18AB4200D91D00530510D52900380000F041FB061E1A
:4016400014D0029A216900F0D0FAA289194B134080221343A38112E02A00380000F090FB061E0CD12169380000F0DEFA0C23402201203B60A38940421343A38117E0029B45
:401680002661F61826606561019EED1AA560019BB34200D21E0032000399206800F0AEFA0020A3689B1BA36023689E19266005B0F0BDC0467FFBFFFFF0B59FB00290059385
:4016C0008B890F0016001B0610D50B69002B0DD1402100F0F5FA38603861002804D10C23029A01381360D8E040237B61002306AD6B6120336B761033AB7634002378002B1E
:4017000003D1A31B049312D003E0252BF9D00134F4E7A31B320039000298FFF76BFF431C00D1B4E06A69049B944663446B612378002B00D1ABE00122002352426A6002A97B
:401740005432521801342B60EB60AB601370AB65534E21780522300000F03CFA002807D00123801B83402A68013413432B60EFE72B68DA0604D55322202102A812181170C3
:401780001A0704D553222B2102A81218117022782A2A03D0099B00200A210EE0059A111D12680591002A01DB099204E05242EA60022213432B6001340BE02278303A092ADF
:4017C00004D84B4301349B180120F6E7002800D0099323782E2B1ED163782A2B0AD1059B02341A1D1B680592002B01DA01235B42079310E000230A201A0001346B6021789F
:401800003039092904D84243013452180123F6E7002B00D00792234E21780322300000F0D9F9002806D04023801B83402A68013413432B60217806221B48661C297600F0BB
:40184000C9F9002812D0194B002B06D10722059B073393430833059314E005AB00933A00134B2900029800E000BF07E005AB00933A000F4B2900029800F08AF80390039B35
:40188000013304D06B69039A9B186B6135E7BB890B985B0601D5012040421FB0F0BDC0469C200000A2200000A620000000000000F5150000F7B5170001938A680B69009036
:4018C0000C00934200DA130022003B6043321278002A01D001333B6023689B0602D53B6802333B60062523681D401ED0230043331B785A1E9341226892061CD53020E11849
:401900004331087021005A1C45310978A2184332023311700FE022000123193201990098089EB047431C0ED00135E3683A689B1A9D42F0DBDAE72200019943320098089D0B
:40194000A847431C02D10120404220E006232068E1683A6803400025042B03D18D1AEB43DB171D40A3682269934201DD9B1AED180027BD420AD0220001231A3201990098B1
:40198000089EB047431CDED00137F2E70020FEBDF0B58BB006920A0043320793059004920A7E0C00109B6E2A00D1ABE011D8632A22D009D8002A00D1B5E0582A00D0C5E0D2
:4019C00045310A70814A4FE0642A1DD0692A1BD0BCE0732A00D1AAE009D86F2A29D0702A00D0B3E0202209680A43226037E0752A1FD0782A33D0A9E00E001A684236111D75
:401A0000196013683370A4E021681A68080606D4490604D5111D19600023D55E02E0111D19601568002D3BDA2D23049A6D42137036E021681A68080606D4490604D515685D
:401A4000111D1960ADB202E0111D196015685F4B227E039308276F2A1DD00A271BE022007821453211705A4A19680392081D226818600D68100602D4500600D5ADB2D30740
:401A800002D520231A4322601027002D03D1202322689A4322602300002243331A7002E00A274A4B03936368A360002B09DB0422216891432160002D05D1049E002B11D0B4
:401AC0007BE0002D79D0049E28003900FFF736FD039B013E5B5C280033703900FFF7A8FC051EF1D1082F09D12368DB0706D563682269934202DC3023013E3370049B9B1BE6
:401B000023612BE009681A68080607D4490605D5111D19601368A28A1A8004E0111D1960136862691A600023049E236116E01A68111D1960166800216268300000F04AF8AB
:401B4000002801D0801B6060636803E0260042363270012323610023049A1370079B09AA00932100069B0598FFF7A4FE431C02D10120404227E02369320006990598079DDE
:401B8000A847431CF4D0236800259B070FD4099BE068984217DA180015E022000123193206990598079EB047431CE1D00135E368099A9B1A9D42F0DBE9E72600039B423612
:401BC0001B7833708EE70BB0F0BDC046AD200000BE200000C9B28218904204D003788B4202D00130F8E700207047002310B59A4203D0CC5CC4540133F9E710BD10B588421E
:401C000002D98B18984201D3002305E09B1A013A08D3995C8154FAE7934203D0CC5CC4540133F9E710BD000070B50500002944D00C1F2368002B00DAE418280000F0D8F82B
:401C40001E4A13681100002B02D16360146031E0A3420DD92268A018834203D118685B688218226063600C6024E0A24203D813005A68002AF9D11E689819A0420BD12168EC
:401C8000711858181960824214D110685268411819605A600EE0A04202D90C232B6009E021686018824203D1106852684118216062605C60280000F09CF870BDA801002038
:401CC000032370B5CD1C9D43083506000C2D01D20C2501E0002D01DBA94202D90C23336048E0300000F084F8234B1C681A002100002913D00B685B1B0DD40B2B02D90B609B
:401D0000CC181EE08C4202D1636813601AE04B6863600C0016E00C004968E9E7174C2368002B03D1300000F051F820602900300000F04CF8431C18D00323C41C9C43A04272
:401D40000DD12560300000F054F8200007220B30231D9043C31A0ED05A42E2500BE0211A300000F033F8431CEBD10C233000336000F03FF8002070BDA8010020A4010020F4
:401D8000F8B506000C001500002904D11100FFF797FF040018E0002A03D1FFF745FF2C0012E000F027F885420ED929003000FFF787FF071E07D021002A00FFF716FF21005D
:401DC0003000FFF731FF3C002000F8BD002370B5064C050008002360FEF74EFB431C03D12368002B00D02B6070BDC046D0010020704770470B1F1A68101F002A04DA8918BA
:401E000004390B68D01804387047000000000000257500004100000000300F40000400400F4000048377030411041F02220125022F0531013201330237043F44401441057F
:401E4000420449FF4AFF4BFF4DA04F0150185287580459045A045B045C115D115F016040628064406540668068406A506BA86C406D206E506FA89601A101AB01B601B7018A
:401E8000BB30BF40C014C105C204C9FFCAFFCBFFCDAFCE07CF01D018D804D904DA04DC31DD01DF01E040E280E440E540E680E840EA50EBA8EC40ED20EE50EFA80E10108030
:401EC00019041F8020012182220426A0270129042A802E102F8030803102380240014301458047014A024E02682869146A4070018620C220C408CAAACC09CE01D099D21858
:401F0000E40240144105420449FF4AFF4BFF4DAF4E074F0150185A045D015F016040628064406540668068406A506BA86C406D206E506FA8841F85078708881889018A0332
:401F40008B128C108E049006921195189703A110A304A407A608A801AA12AD06AF11B51FB61FB902BE40BF01C014C105C204C545C6C0C72EC83FC9FFCAFFCBFFCDAFCE07D3
:401F8000CF01D018D417D804D904DA04DB04DC10DD11DF01E040E280E440E540E680E840EA50EBA8EC40ED20EE50EFA800A408010A401028194020042202280129013104C2
:401FC00039144180430145804701485049054A024E0250805101521459605A08629482808521911492489B019E80A028A180A280A480A602B610C007C208C406CA09CC02ED
:40200000CE06D099D218D60ED80EE009EE025308D420030683048702AF08C040E090EE4013413A404B208710C40ACE08D2086108810886409E40AF40B701D802EE08010AB3
:40204000100A000001000F404B300F4023310F4055320F4031330F4002400F4007410F4007420F4008430F4002600F40030405060708090A0B0C0E0F1011121314151617F1
:4020800018191B1C1D1E1F2021222325262728292A2B2E2F3031323334354300232D302B2000686C4C006566674546470030313233343536373839414243444546003031FF
:4020C00032333435363738396162636465660000F8B5C046F8BC08BC9E467047E9020000F1040000F8B5C046F8BC08BC9E467047C102000008210000C0000020880000001F
:40210000900000000000000000000000D8010020010000000000C05D80BB000030000000006CDC02F000000004040400000000000000000000000000000000000000000047
:402140000000000000000000000000009A200000000000000000000000000000000000000000000000000000000000000000000000000000000000000000000000000000A5
:40218000000000000000000000000000E40000200000000000000000000000000000000000000000000000000000000000000000000000000000000000000000000000001B
:4021C00000000000000000000000000000000000000000000000000000000000000000000000000000000000000000000000000000000000000000000000000000000000DF
:40220000000000000000000000000000000000000000000000000000000000000000000000000000000000000000000000000000000000000000000000000000000000009E
:40224000000000000000000000000000000000000000000000000000000000000000000000000000000000000000000000000000000000000000000000000000000000005E
:40228000000000000000000000000000000000000000000000000000000000000000000000000000000000000000000000000000000000000000000000000000000000001E
:020000040003F7
:0200000490303A
:02000000ABC48F
:0200000490402A
:4000000000000000000000000000000000000000000000000000000000000000000000000000000000000000000000000000000000000000000000000000000000000000C0
:400040000000000000000000000000000000000000000000000000000000000000000000000000000000000000000000000000000000000000000000000000000000000080
:0200000490501A
:0C00000000021A1711AA00011A21BD6E9F
:0200000490600A
:0100000001FE
:00000001FF