:400000000080002011000000D1040000D104000010B500F07DFAC04670B51222344B1A6000F0D6FB334801F08BF9012000F0F0FB302000F0E7FA304A304B1A60304C802583
:40004000ED0525602F4A116802230B4313602E4A2E4B1A6000222E4B1A602E4A136808218B431360FA20C00000F07EFB2A4800F0BFFABE22D201294B1A60294B294A1A60F4
:4000800080214900284A1160284A1A60284A29490A602949196029490A60294A1A6088218901284A1160284A1A6080221206274B1A608022D202264B1A604222254B1A602E
:4000C0004023254A13604321244A1160244A13604422244B1A60033A234B1A602349082000F074FA082000F065FA256070BDC04630001040001BB7000600008004010B40DA
:400100000C020B4078002E402D3E00007C002E4064F02E406CF02E40DC050000080301400000014042FF00800003014040FF0080007FBB000C03014043FF008010030140CD
:4001400044FF00800403014041FF008008010B4000010B40380101403001014024010140200101401C010140040101402909000070B572B60022354B1A600132344B1A70E5
:4001800000240FE033486200131959000B00411889881A5AC31858880004104300F08EF90134E4B2022CEDD9002411E0294EA2001319590071188D8AC88A000428430A8BF0
:4001C000498B09041143802200F07EF90134E4B2002CEBD01F4920311F480C3000F044F91E4A1F4B1A6099231B041E4A13601E4A1360802109031D4A11601D4A13600E2319
:400200001C4A13601C4A13601C490B783C22934314221343DBB20B70194A117816230B43DBB213700622174B1A60174A174B1A602422174B1A60174A174B1A602022174B95
:400240001A60FFF7E9FE00F029F970BD6CF02E401C700F40441D0000C41F0000300300EE000002400001024000500F4008500F4010500F402000104000800F4001700F4065
:4002800000700F4000000440B001D800080004400001044080100300080104401801044010B5064C2378002B07D1054B002B02D0044800E000BF0123237010BD58010020FA
:4002C000000000003C1D0000084B10B5002B03D00749084800E000BF07480368002B00D110BD064B002BFBD09847F9E7000000005C0100203C1D0000C00000200000000011
:4003000010B5012000F0FEFC0B4A10800B4A904205D1FA210901012000F05AFC07E0FA221201904203D10549012000F051FC012000F068FF10BDC046CC010020B80B00001C
:4003400070B5164B1B785BB2002B23D0012000F0E1FC0200124E3060124D134C2900200001F0C8F8200000F0F1FB202000F060FB012000F0C7FC020030602900200001F07A
:40038000B9F8200000F0E2FB0A2000F051FB0D2000F04EFB012000F097FF70BD74010020C8010020401D0000D001002070B562B60022284B1A6000F095FC00F01BFB00F070
:4003C00011FF00F071FF244800F0B0FE234800F0A7FF002500F0A4FB0400C3B2702B03D100221F4B1A702AE0732B03D101221C4B1A7024E00D2B0FD1FA22D20095420BDD77
:40040000184A954208DCA9B2012000F0E1FB0A2000F00EFB002512E00D2B04D10A2000F007FB00250BE01A00303AD2B2092A06D8A90069184A0092B2D318303B1DB2084A9C
:40044000127852B2002AC5D1FF20204000F0F0FAC0E7C046C8010020010300004103000074010020BF120000F0B50025002711E0BB00C658F3B2FF22964308E06A008A1843
:400480001478A419527822700135013BDBB2002BF4D10137092FEBD9F0BDC0460323044A1360044A13600022034B1A607047C0463000304030003140000E3F4010B50A00D5
:4004C000002101F00EF810BD10B501F001F810BD10B500F0D1FF03680C2B00D1FEE7FEE710B50300084A1068C318084A9A1A802A02DC054A136005E000F0BEFF0C230360F8
:400500000120404210BDC046C4000020F801002070B50F4E0F4D13E029686B68AC68002202E001C901C30432A242FAD1E868002202E0002102C304328242FAD11035013E05
:40054000002EE9D100F09EFFFFF730FFFEE7C046010000000C21000010B50E4A136801218B43136000230AE0032B03D89A000A49505800E009489900094A885001332F2B9F
:40058000F2D9FFF7F5FD034A116801230B43136010BDC0460000104000000000D104000000000020024B1B68012018407047C0460C002E401F2318401E3B8340014A1360D1
:4005C0007047C04600E100E001BE704770B504000D001F2802D90020FFF7F6FF1034A40080239B059C4664442068256070BDC04610B5034B1B7B584300F0A2FE10BDC04608
:40060000C8000020F0B557464E46C0B483B0040000F09FFE0190E71E2D2F74D83F4B1B78DBB29C4208D83E4B1B78DBB29A463D4B1B78DBB2994631E03B4B1B78DBB29C4279
:4006400008D83A4B1B78DBB29A46394B1B78DBB2994623E0374B1B78DBB29C4208D8364B1B78DBB29A46354B1B78DBB2994615E0334B1B78DBB29C4208D8324B1B78DBB241
:400680009A46314B1B78DBB2994607E02F4B1B78DBB29A462E4B1B78DBB299462D4BDE5D2F2E09D92A2C07D919222B4B1A60052000F046FE192503E0274B1D683F231D4083
:4006C000B54206D9234BDA5D234B1A60052000F037FE1F4B9C4664442378DBB21F4A13601F4B52461A601F4B4A461A600520FFF77FFFB5420AD2174BDA5D174B1A6005205F
:4007000000F01EFE02E00020FFF75EFF019800F024FE03B00CBC91469A46F0BD40F3FF0F41F3FF0F42F3FF0F43F3FF0F44F3FF0F45F3FF0F46F3FF0F47F3FF0F48F3FF0F61
:4007400049F3FF0F4AF3FF0F4BF3FF0F4CF3FF0F4DF3FF0F782000002CFF0B4028FF0B401CFF0B4020FF0B4010B504000F4A116801230B4313600E4A0E4B1A600E4A13682F
:40078000802109020B431360002809D100200CE00120FFF72DFFFFF705FF002804D1013C002CF5D1102000E0002010BD60F02E400220000078002E4010002E40034B186846
:4007C000C0231B02184000D00120704700010B4010B50D4B1A6801218A431A601A68022082431A60094A10683024A043203C204310601068093CA043014311601A68802119
:4008000009060A431A6010BD00F02E4000FF2E4070B51D4B1B6801241C40002802D0012816D02BE0184B19680122914319601968022081431960154B19682E308143203816
:40084000014319601968093881430A431A6018E00D4B1A6802218A431A600C4A10680725A84301431160116830208143103801431160196801220A431A6002E00020FFF7AB
:40088000A3FE200070BDC04600F02E4000FF2E4010B500F05EFD044A1368C02109020B43136000F05AFD10BD00010B4010B500F050FD08490A68084B1A408024E401224333
:4008C0000A600A6813408022120213430B6000F044FD10BD00010B40FF3FFFFF70B5050000F037FD0400FFF769FF002803D0FFF7DDFF012100E0002108482840084A1568A5
:40090000084B2B40184310601368012901D1FFF7BFFF200000F021FD70BDC0460404040010020B40FBFBFBFF10B5244B1B685B0715D5234B5B685B070ED5224B596A04207C
:4009400001401F4C62688A4362605A6A82435A629B69002B00D098470420FFF7BFFF174B1B685B0518D5164B5B685B0510D5154B596A8022D2001140114842688A43426082
:40098000596A114A0A405A62DB69002B00D098478020C000FFF7A2FF084B1B685B030CD5074B5B685B0304D5064B1B6A002B00D098478020C002FFF791FF10BD10020B40DB
:4009C000DC00002078010020FFFBFFFF10B500F091F810BD10B500F039F810BD10B5044A1368802109060B431360FFF7EFFF10BD0000244010B5064B1B78002B04D1FFF7F9
:400A0000E9FF0122024B1A70FFF7E8FF10BDC046A0010020014B18687047C04640032440024B1B681F2018407047C04608032440044B1B681F221340082BF9D0024B186079
:400A40007047C0460802244040022440154A164B1A600023154A13601549164A1160164A16490A6007201649086016490B6006381549086015490A60154A13600421154A44
:400A80001160154A1360154A1360154A1360154A1360154A1360154A13601268144B1A807047C0460B000002000024404000244001000A00480024400700008000032440EF
:400AC000040324401003244044002440000224400402244050002440880E2440C80E2440480F2440080F2440C80F2440880F2440A2010020064A1168064B0B409021090462
:400B00000B431360044B1A88044B1A607047C04600010240FFFF0FFFA2010020880F244010B5FFF77DFF002802D0FFF773FF00E00020054B1A68D8239B001A4203D01A0026
:400B4000014B1A60002010BDC00F244070B50500002402E0FFF76CFF0134285D0028F9D170BDC04610B500F07FFA2122064B1A7000F0EFFB054A117810230B43DBB2137090
:400B800000F0EBFB10BDC04671000F4091000F40014B18807047C046A4010020014B18887047C046A401002010B501280BD80B01591A8801044900F0D3FBF0239B009842AC
:400BC00001D8024B186010BD102700004C012040012803D801384000014BC1527047C046DC010020F8B500F057FA002416E0F02292002C4B1A60651CEDB22B4FE600321BA6
:400C00005300FB1899892800FFF7CEFF341B6300FB1859892800FFF7DBFF2C00002CE6D000F097FB214B19880222FF320A431A801988FE220A401A8000F08FFB3C221C4BE5
:400C40001A70323A1B4B1A70F0321B4B1A70F93A1A4B1A700120FFF79BFF002419E000F078FB630080218901154A99521549164A99521649164A9952A300C0214904154ACE
:400C80009950F0218904144A995000F066FB0134E4B2002CE3D0114800F080F9104800F0AFF9F8BD54012040E400002024110F4020000F4030000F4021000F4031000F40E9
:400CC000E40100209AE9FFFFD401002033030000E8010020E0010020EC010020410D0000D50D000010B5064B1B79002B04D1FFF779FF0122024B1A71FFF734FF10BDC046ED
:400D0000A401002001384000014B185A7047C046DC01002010B501280AD801384000064BC15A002906D0054800F01AFB80B202E0002000E0002010BDD801002080C3C901F0
:400D40001E4B1A780F2313401D4A128892B258001C494252002A05D101329A401A49088802430A80002B01D0013BDBB2134A11780F20814311701278D1B2002B01D18022C3
:400D800000E000221A430A43D2B20C490A70002B12D10E4A117808230B43DBB213700A4B1B880B4A12881A4206D0084A117880235B420B43DBB213707047C04670000F40AE
:400DC00084100F40D8010020A601002071000F40A4010020F0B557464E464546E0B400248CE0250066004F4BF15A4F4800F0B8FA4E4BF35A1B1A1BB24D4A934204DB8022C8
:400E00005201934202DC03E0494B01E080235B01484A9046AA0094466F00474AB95E594342466646B25891464944B946C1444A460426925F9246414ABA5E564672438918F8
:400E40004A460826925F3E4EBE5F56438A19414666467250494656460E818B80394B6146CB589A4203DA62464146535007E0AB0035495B589A4202DDAA002E495350AB005E
:400E80002C4A9A58120C314959580B68304E3678760600D40A60F022920093420AD16A002249525A904205D2224B5B191A7B01321A7314E0002B0ED16B001C4A9B5A9842D6
:400EC00009D91C4B5B191B7BFF2B08D0194A52190133137303E0174B5B1900221A73154B5B191B7B102B07D9FFF758FE0123AB40184080B20F4BD8810134E4B2002C00D1C8
:400F00006FE70C4BDB899BB2002B05D0104A117810230B43DBB213701CBC90469946A246F0BDC046D801002080C3C901DC01002000F0FFFFAC010020E4010020D4010020FF
:400F4000E8010020E0010020EC010020AC20000071000F40014B58647047C0460000002010B5040000F0F5F9044A1168044B0B40A4031C43146000F0F0F910BD00E400E0FD
:400F8000FF3FFFFF0222014B1A60704700E100E00222014B1A60704780E100E010B50400FFF7F6FF2000FFF7D5FF0320FFF7D8FFFFF7E8FF10BDC046014B98647047C0466E
:400FC0000000002010B5040000F0C3F9044A1168044B0B40A4051C43146000F0BEF910BD00E400E0FFFF3FFF0422014B1A60704700E100E00422014B1A60704780E100E0C3
:4010000010B50400FFF7F6FF2000FFF7D5FF0320FFF7D8FFFFF7E8FF10BDC0460004000C014B18607047C046480120400004000C014B18607047C046540120400004000CE2
:40104000014B18607047C0464C01204070B504000D0000F07EF9AC40024B1C6000F07DF970BDC0460800204010B500F072F9064A116802230B43136000F06FF9182102206D
:40108000FFF7E4FF10BDC04600002040014B18607047C0467801204010B50D4C8023DB042360236823600020FFF7B8FF236823600C22084B1A600020FFF7E8FF3122064B22
:4010C0001A60FF20FFF7B2FF4020FFF7B7FF10BD4001204064012040680120408423014AD05070470000002010B5040000F031F9044A1168044B0B40A4031C43146000F011
:401100002CF910BD10E400E0FF3FFFFF80229202014B1A607047C04600E100E080229202014B1A607047C04680E100E010B50400FFF7F4FF2000FFF7D1FF0320FFF7D4FFB5
:40114000FFF7E4FF10BDC0460004000C014B18607047C046080120400004000C014B18607047C0461401204070B504000D0000F0F0F8AC40024B1C6000F0EFF870BDC046F6
:401180000800204010B500F0E4F8064A116801230B43136000F0E1F818210120FFF7E4FF10BDC04600002040014B18607047C0463801204010B580229204084B1A600C2247
:4011C000074B1A600120FFF7EFFFFA208000FFF7C3FF0020FFF7B8FF10BDC046000120402401204010B5064B1B78002B04D1FFF7E1FF0122024B1A70FFF7C4FF10BDC04641
:40120000BC010020014B18607047C046300120400004000C014B18607047C046880120400004000C014B18607047C0469401204070B504000D0000F08CF8AC40024B1C6060
:4012400000F08BF870BDC0460800204010B500F080F8064A116804230B43136000F07DF818210420FFF7E4FF10BDC04600002040014B18607047C046B801204010B58022B3
:401280009204074B1A600C22064B1A600120FFF7EFFF0320FFF7C4FF0020FFF7B9FF10BD80012040A401204010B5064B1B78002B04D1FFF7E3FF0122024B1A70FFF7C6FF3B
:4012C00010BDC046BD010020014B18607047C046B00120408C23014AD05070470000002010B5040000F035F8044A13689B009B08A4071C43146000F030F810BD10E400E096
:4013000080221203014B1A607047C04600E100E080221203014B1A607047C04680E100E010B50400FFF7F4FF2000FFF7D3FF0320FFF7D6FFFFF7E4FF10BDC0460000000003
:401340000230800803D00138FDD1C046C046C0467047EFF3108072B6704780F310887047002243088B4274D303098B425FD3030A8B4244D3030B8B4228D3030C8B420DD3EE
:40138000FF22090212BA030C8B4202D31212090265D0030B8B4219D300E0090AC30B8B4201D3CB03C01A5241830B8B4201D38B03C01A5241430B8B4201D34B03C01A5241E8
:4013C000030B8B4201D30B03C01A5241C30A8B4201D3CB02C01A5241830A8B4201D38B02C01A5241430A8B4201D34B02C01A5241030A8B4201D30B02C01A5241CDD2C309B8
:401400008B4201D3CB01C01A524183098B4201D38B01C01A524143098B4201D34B01C01A524103098B4201D30B01C01A5241C3088B4201D3CB00C01A524183088B4201D310
:401440008B00C01A524143088B4201D34B00C01A5241411A00D20146524110467047FFE701B5002000F006F802BDC0460029F7D076E770477047C046014B18687047C04603
:40148000540100200E4B70B500251E000D4CE41AA410A54204D0AB00F35898470135F8E700F022FE084B00251E00084CE41AA410A54204D0AB00F35898470135F8E770BDC8
:4014C000F4200000F4200000F4200000FC200000002310B59A4203D0CC5CC4540133F9E710BD03008218934202D019700133FAE7704700000EB410B59DB002A902900861C9
:401500000B48822488604861012040421FABC881084804CBA400006801938C8100F06EF80023029A13701DB010BC08BC03B01847FFFFFF7F54010020F0B58E6885B00700D0
:401540000C00039201939E4243D890238A89DB001A423ED003250969236801985B1A029363695D43EB0F5D19029B6D1001331B18AB4200D91D00530510D52900380000F09A
:4015800037FB061E14D0029A2169FFF7A1FFA289194B134080221343A38112E02A00380000F086FB061E0CD12169380000F0D4FA0C23402201203B60A38940421343A3817C
:4015C00017E0029B2661F61826606561019EED1AA560019BB34200D21E0032000399206800F0A5FA0020A3689B1BA36023689E19266005B0F0BDC0467FFBFFFFF0B59FB0E5
:40160000029005938B890F0016001B0610D50B69002B0DD1402100F0EBFA38603861002804D10C23029A01381360D8E040237B61002306AD6B6120336B761033AB76340084
:401640002378002B03D1A31B049312D003E0252BF9D00134F4E7A31B320039000298FFF76BFF431C00D1B4E06A69049B944663446B612378002B00D1ABE0012200235242EB
:401680006A6002A95432521801342B60EB60AB601370AB65534E21780522300000F03CFA002807D00123801B83402A68013413432B60EFE72B68DA0604D55322202102A8BA
:4016C000121811701A0704D553222B2102A81218117022782A2A03D0099B00200A210EE0059A111D12680591002A01DB099204E05242EA60022213432B6001340BE0227892
:40170000303A092A04D84B4301349B180120F6E7002800D0099323782E2B1ED163782A2B0AD1059B02341A1D1B680592002B01DA01235B42079310E000230A201A00013426
:401740006B6021783039092904D84243013452180123F6E7002B00D00792234E21780322300000F0D9F9002806D04023801B83402A68013413432B60217806221B48661CA7
:40178000297600F0C9F9002812D0194B002B06D10722059B073393430833059314E005AB00933A00134B2900029800E000BF07E005AB00933A000F4B2900029800F08AF898
:4017C0000390039B013304D06B69039A9B186B6135E7BB890B985B0601D5012040421FB0F0BDC046B2200000B8200000BC2000000000000039150000F7B5170001938A6844
:401800000B6900900C00934200DA130022003B6043321278002A01D001333B6023689B0602D53B6802333B60062523681D401ED0230043331B785A1E9341226892061CD54E
:401840003020E1184331087021005A1C45310978A2184332023311700FE022000123193201990098089EB047431C0ED00135E3683A689B1A9D42F0DBDAE7220001994332C0
:401880000098089DA847431C02D10120404220E006232068E1683A6803400025042B03D18D1AEB43DB171D40A3682269934201DD9B1AED180027BD420AD0220001231A3267
:4018C00001990098089EB047431CDED00137F2E70020FEBDF0B58BB006920A0043320793059004920A7E0C00109B6E2A00D1ABE011D8632A22D009D8002A00D1B5E0582AD6
:4019000000D0C5E045310A70814A4FE0642A1DD0692A1BD0BCE0732A00D1AAE009D86F2A29D0702A00D0B3E0202209680A43226037E0752A1FD0782A33D0A9E00E001A6866
:401940004236111D196013683370A4E021681A68080606D4490604D5111D19600023D55E02E0111D19601568002D3BDA2D23049A6D42137036E021681A68080606D44906CE
:4019800004D51568111D1960ADB202E0111D196015685F4B227E039308276F2A1DD00A271BE022007821453211705A4A19680392081D226818600D68100602D4500600D5E4
:4019C000ADB2D30702D520231A4322601027002D03D1202322689A4322602300002243331A7002E00A274A4B03936368A360002B09DB0422216891432160002D05D1049E48
:401A0000002B11D07BE0002D79D0049E28003900FFF72CFD039B013E5B5C280033703900FFF79EFC051EF1D1082F09D12368DB0706D563682269934202DC3023013E337003
:401A4000049B9B1B23612BE009681A68080607D4490605D5111D19601368A28A1A8004E0111D1960136862691A600023049E236116E01A68111D1960166800216268300049
:401A800000F04AF8002801D0801B6060636803E0260042363270012323610023049A1370079B09AA00932100069B0598FFF7A4FE431C02D10120404227E0236932000699AE
:401AC0000598079DA847431CF4D0236800259B070FD4099BE068984217DA180015E022000123193206990598079EB047431CE1D00135E368099A9B1A9D42F0DBE9E72600A8
:401B0000039B42361B7833708EE70BB0F0BDC046C3200000D4200000C9B28218904204D003788B4202D00130F8E70020704710B5884202D98B18984201D3002305E09B1A6B
:401B4000013A08D3995C8154FAE7934203D0CC5CC4540133F9E710BD70B50500002944D00C1F2368002B00DAE418280000F0D8F81E4A13681100002B02D16360146031E09B
:401B8000A3420DD92268A018834203D118685B688218226063600C6024E0A24203D813005A68002AF9D11E689819A0420BD12168711858181960824214D110685268411841
:401BC00019605A600EE0A04202D90C232B6009E021686018824203D1106852684118216062605C60280000F09CF870BDC4010020032370B5CD1C9D43083506000C2D01D220
:401C00000C2501E0002D01DBA94202D90C23336048E0300000F084F8234B1C681A002100002913D00B685B1B0DD40B2B02D90B60CC181EE08C4202D1636813601AE04B6850
:401C400063600C0016E00C004968E9E7174C2368002B03D1300000F051F820602900300000F04CF8431C18D00323C41C9C43A0420DD12560300000F054F8200007220B304E
:401C8000231D9043C31A0ED05A42E2500BE0211A300000F033F8431CEBD10C233000336000F03FF8002070BDC4010020C0010020F8B506000C001500002904D11100FFF7F7
:401CC00097FF040018E0002A03D1FFF745FF2C0012E000F027F885420ED929003000FFF787FF071E07D021002A00FFF7F1FB21003000FFF731FF3C002000F8BD002370B571
:401D0000064C050008002360FEF7EAFB431C03D12368002B00D02B6070BDC046F0010020704770470B1F1A68101F002A04DA891804390B68D01804387047000000000000E2
:401D40002575000000300F40000280320F40800100400F400004000000320F40F81F0000800000008103060308050A0226043006320636013880406141024502470648111D
:401D800049FF4AFF4BFF4CEA4D044F04500852835380580D5A0D5B0D5C035D335F016040614062806460654066A0681069506A906B506C206EA06F088208830187088B0139
:401DC0008E10920193049502960497019A049E03A001A202A702AA10AE02AF08B003B108B210B301B408B502B604B704BE44C023C106C620C760C828C9FFCAFFCBFFCCEA80
:401E0000CD04CF04D008D2BFD318D403D604D804D90EDA0EDB04DC31DD13DF01E6A0E840E940EA90EB50EC60ED40EEA0EF08001001080741088009800C400E581304154177
:401E4000171018101A011B021D801E682561260127282E082F02350137083F26412042014404461047204A084B044E085208561057115C805E2064506608672068096D4191
:401E80006E106F1071017608774178107F108501C096C2F0C4D4CA50CCC0CEE0D06CD224D630D880DE448040860888098A128E05900792089410962197039A409D01A410DA
:401EC000A62EA840B240B43FB501B702B928BB80C026C103C204C790C820C9FFCAFFCBFFCC0FCD0FCE0FCF01D80ED904DA0EDC83DD03DF11E040E1A8E240E320E440E5A8EF
:401F0000E640E720E840E920EA10EB80EC40EDA8EE40EFA8000A0120020105100641072009290D080E021008110816081701180419381B301C081D081E111F0221202244F1
:401F40002504268427212C842F213244341036843C083D823E1840044108428043024508468047204A044F20520153015480564078287C087F1084208601880493209814D4
:401F80009D08A009A141A201C0FFC2AEC456CAF0CC7ACEF0D0E7D224DE46E680EE8050028410D480E21001106F0273087410851087028B08A010B002C040DA80DC60E2105A
:401FC000E4101620C404B220EE01010A100A000001000F4064300F403C310F4037320F4045330F4004400F400E410F4002420F4002430F4002600F400202010422085C0003
:40200000061B302400800800000000001E35600A000000400800148100010200002C001004800240000000204000383F060001C000002800000000006203040000000E00C7
:4020400004FFFFFF0000000100000000000000000E0E0E003303000140A8402040A840204020108040A840A800000000000000000000000000000000030405060708090A79
:402080000B0C0E0F101112131415161718191B1C1D1E1F2021222325262728292A2B2E2F3031323334350000540120404C0120404300232D302B2000686C4C00656667455D
:4020C00046470030313233343536373839414243444546003031323334353637383961626364656600000000F8B5C046F8BC08BC9E467047C902000059050000F8B5C046AD
:40210000F8BC08BC9E467047A102000020210000C000002098000000A00000000000000000000000F8010020010000000000C05D80BB000030000000006CDC02F0000000B4
:40214000040404009808C0127C151027AD00A00F982100000000000000000000000000000000000000000000000000000000000000000000B0200000000000000000000034
:4021800000000000000000000000000000000000000000000000000000000000000000000000000000000000000000000000000000000000F400002000000000000000000B
:4021C00000000000000000000000000000000000000000000000000000000000000000000000000000000000000000000000000000000000000000000000000000000000DF
:40220000000000000000000000000000000000000000000000000000000000000000000000000000000000000000000000000000000000000000000000000000000000009E
:40224000000000000000000000000000000000000000000000000000000000000000000000000000000000000000000000000000000000000000000000000000000000005E
:40228000000000000000000000000000000000000000000000000000000000000000000000000000000000000000000000000000000000000000000000000000000000001E
:020000040003F7
:0200000490303A
:02000000D9FA2B
:0200000490402A
:4000000000000000000000000000000000000000000000000000000000000000000000000000000000000000000000000000000000000000000000000000000000000000C0
:400040000000000000000000000000000000000000000000000000000000000000000000000000000000000000000000000000000000000000000000000000000000000080
:0200000490501A
:0C00000000021A1711AA00011A21EBA43B
:0200000490600A
:0100000001FE
:00000001FF