:400000000080002011000000910400009104000010B500F05DFAC04670B512222F4B1A6000F0B6FB2E4801F07FF9012000F0D0FB302000F0C7FA2B4A2B4B1A602B4C8025A8
:40004000ED0525602A4A116802230B431360294A294B1A600022294B1A60294A136808218B431360FA20C00000F05EFB254800F09FFABE22D201244B1A60244B244A1A6061
:4000800080214900234A1160234A1A6088218901224A1160224A1A6080221206214B1A608022D202204B1A604222204B1A6040231F4A13601F4A13601F4A13601F4A136084
:4000C0001F4A136041221F4B1A601F49082000F05DFA082000F04EFA256070BD30001040001BB7000600008004010B400C020B4078002E402D3E00007C002E4064F02E4076
:400100006CF02E40DC050000080301400000014042FF00800003014040FF00800403014041FF008008010B4000010B403801014030010140280101402401014020010140FD
:400140001C01014004010140E908000070B572B60022364B1A600132354B1A7000240FE034486200131959000B00411889881A5AC31858880004104300F080F90134E4B29E
:40018000012CEDD9002411E02A4EA2001319590071188D89C889000428430A8A498A09041143802200F070F90134E4B2002CEBD0204918312048303000F036F9EE22120603
:4001C0001E4B1A601E4A1F4B1A6099231B041E4A13601E4A13601E4A1E4B1A6006231E4A13601E4A13601E490B783C22934314221343DBB20B701B4A117816230B43DBB261
:4002000013703522184B1A60184A194B1A60AE22184B1A60184A194B1A602022184B1A60FFF7FAFE00F01AF970BDC0466CF02E401C700F402C1D0000AC1F0000000002409C
:40024000303899300001024000500F4010500F400000194018500F402000104000800F4001700F4000700F40000004408220D9000800044000010440B01DC30008010440C1
:400280001801044010B5064C2378002B07D1054B002B02D0044800E000BF0123237010BD8001002000000000241D0000084B10B5002B03D00749084800E000BF074803687F
:4002C000002B00D110BD064B002BFBD09847F9E70000000084010020241D0000C000002000000000F8B5012721E0FEB2300000F005FD134D28604208124C1349200001F0C4
:40030000EDF8200000F002FC202000F071FB300000F0ECFC286042080B49200001F0DEF8200000F0F3FB202000F062FB0137042FDBDD0A2000F05CFB0D2000F059FBF8BDD4
:400340000402002014020020281D000010B500240DE06300074AD15A074BCB189BB2074A934203D8601CC0B200F01CFC0134032CEFDD10BD0C0200205FF0FFFF5A120000CA
:4003800070B562B60022254B1A6000F09FFC00F011FB0025002600F0A3FB0400C3B2702B03D100221E4B1A702BE0732B03D101221B4B1A7025E0202B07D169007300194AA0
:4003C0008B5201356DB200261BE00D2B0DD1032D03D16D007300134AAB52FFF7B7FF0A2000F006FB002500260BE01A00303AD2B2092A06D8B200B618720092B2D318303BB4
:400400001EB2074A127852B2002A02D0FFF76AFFC1E7FF20204000F0EBFABCE7040200209C0100200C020020F0B50025002711E0BB00C658F3B2FF22964308E06A008A18B4
:400440001478A419527822700135013BDBB2002BF4D10137092FEBD9F0BDC0460323044A1360044A13600022034B1A607047C0463000304030003140000E3F4010B50A0015
:40048000002101F022F810BD10B501F015F810BD10B500F0E5FF03680C2B00D1FEE7FEE710B50300084A1068C318084A9A1A802A02DC054A136005E000F0D2FF0C230360E8
:4004C0000120404210BDC046C40000206802002070B50F4E0F4D13E029686B68AC68002202E001C901C30432A242FAD1E868002202E0002102C304328242FAD11035013ED5
:40050000002EE9D100F0B2FFFFF73AFFFEE7C046010000003021000010B50E4A136801218B43136000230AE0032B03D89A000A49505800E009489900094A885001332F2B9D
:40054000F2D9FFF703FE034A116801230B43136010BDC04600001040000000009104000000000020024B1B68012018407047C0460C002E401F2318401E3B8340014A136042
:400580007047C04600E100E001BE704770B504000D001F2802D90020FFF7F6FF1034A40080239B059C4664442068256070BDC04610B5034B1B7B584300F0B6FE10BDC04634
:4005C000C8000020F0B557464E46C0B483B0040000F0B3FE0190E71E2D2F74D83F4B1B78DBB29C4208D83E4B1B78DBB29A463D4B1B78DBB2994631E03B4B1B78DBB29C42A6
:4006000008D83A4B1B78DBB29A46394B1B78DBB2994623E0374B1B78DBB29C4208D8364B1B78DBB29A46354B1B78DBB2994615E0334B1B78DBB29C4208D8324B1B78DBB281
:400640009A46314B1B78DBB2994607E02F4B1B78DBB29A462E4B1B78DBB299462D4BDE5D2F2E09D92A2C07D919222B4B1A60052000F05AFE192503E0274B1D683F231D40AF
:40068000B54206D9234BDA5D234B1A60052000F04BFE1F4B9C4664442378DBB21F4A13601F4B52461A601F4B4A461A600520FFF77FFFB5420AD2174BDA5D174B1A6005208B
:4006C00000F032FE02E00020FFF75EFF019800F038FE03B00CBC91469A46F0BD40F3FF0F41F3FF0F42F3FF0F43F3FF0F44F3FF0F45F3FF0F46F3FF0F47F3FF0F48F3FF0F7A
:4007000049F3FF0F4AF3FF0F4BF3FF0F4CF3FF0F4DF3FF0F842000002CFF0B4028FF0B401CFF0B4020FF0B4010B504000F4A116801230B4313600E4A0E4B1A600E4A136863
:40074000802109020B431360002809D100200CE00120FFF72DFFFFF705FF002804D1013C002CF5D1102000E0002010BD60F02E400220000078002E4010002E40034B186886
:40078000C0231B02184000D00120704700010B4010B50D4B1A6801218A431A601A68022082431A60094A10683024A043203C204310601068093CA043014311601A68802159
:4007C00009060A431A6010BD00F02E4000FF2E4070B51D4B1B6801241C40002802D0012816D02BE0184B19680122914319601968022081431960154B19682E308143203857
:40080000014319601968093881430A431A6018E00D4B1A6802218A431A600C4A10680725A84301431160116830208143103801431160196801220A431A6002E00020FFF7EB
:40084000A3FE200070BDC04600F02E4000FF2E4010B500F072FD044A1368C02109020B43136000F06EFD10BD00010B4010B500F064FD08490A68084B1A408024E401224337
:400880000A600A6813408022120213430B6000F058FD10BD00010B40FF3FFFFF70B5050000F04BFD0400FFF769FF002803D0FFF7DDFF012100E0002108482840084A1568BD
:4008C000084B2B40184310601368012901D1FFF7BFFF200000F035FD70BDC0460404040010020B40FBFBFBFF10B5244B1B685B0715D5234B5B685B070ED5224B596A0420A9
:4009000001401F4C62688A4362605A6A82435A629B69002B00D098470420FFF7BFFF174B1B685B0518D5164B5B685B0510D5154B596A8022D2001140114842688A434260C2
:40094000596A114A0A405A62DB69002B00D098478020C000FFF7A2FF084B1B685B030CD5074B5B685B0304D5064B1B6A002B00D098478020C002FFF791FF10BD10020B401B
:40098000DC000020A0010020FFFBFFFF10B500F091F810BD10B500F039F810BD10B5044A1368802109060B431360FFF7EFFF10BD0000244010B5064B1B78002B04D1FFF711
:4009C000E9FF0122024B1A70FFF7E8FF10BDC046C8010020014B18687047C04640032440024B1B681F2018407047C04608032440044B1B681F221340082BF9D0024B186092
:400A00007047C0460802244040022440154A164B1A600023154A13601549164A1160164A16490A6007201649086016490B6006381549086015490A60154A13600421154A84
:400A40001160154A1360154A1360154A1360154A1360154A1360154A13601268144B1A807047C0460B000002000024404000244001000A004800244007000080000324402F
:400A8000040324401003244044002440000224400402244050002440880E2440C80E2440480F2440080F2440C80F2440880F2440CA010020064A1168064B0B40902109047A
:400AC0000B431360044B1A88044B1A607047C04600010240FFFF0FFFCA010020880F244010B5FFF77DFF002802D0FFF773FF00E00020054B1A68D8239B001A4203D01A003F
:400B0000014B1A60002010BDC00F244070B50500002402E0FFF76CFF0134285D0028F9D170BDC04610B500F097FA00F0F5FA00F057FB00F0B9FB2122064B1A7000F0FDFB4E
:400B4000054A117810230B43DBB2137000F0F9FB10BDC04672000F4092000F40014B18807047C046CC010020014B18887047C046CC01002010B5040004280ED80B01591A35
:400B80008801064900F0E0FBF0239B00984204D8013CA400024BE358186010BD10270000B4200000042803D801384000014BC1527047C04628020020F8B500F065FA00F0A3
:400BC000C3FA00F025FB00F087FB002419E02600A3002E4AD3181B69F02292001A600134E4B22B4FF500AA1B5300FB1899892000FFF7C0FFAD1B6B00FB1859892000FFF731
:400C0000D1FF032CE3D900F098FB224B19880222FF320A431A801988FE220A401A8000F090FB3C221C4B1A70323A1C4B1A70F0321B4B1A70F93A1B4B1A700F20FFF78EFF79
:400C4000002419E000F079FB630080218901164A99521649164A99521649174A9952A300C0214904154A9950F0218904144A995000F067FB0134E4B2032CE3D9114800F076
:400C800085F9114800F0B4F9F8BDC046B4200000E400002020110F4022000F4032000F4023000F4033000F40400200209AE9FFFF18020020330300004802002030020020B8
:400CC00050020020290D0000BD0D000010B5064B1B79002B04D1FFF76FFF0122024B1A71FFF720FF10BDC046CC01002001384000014B185A7047C0462802002010B5042875
:400D00000AD801384000064BC15A002906D0054800F01AFB80B202E0002000E0002010BD2002002080C3C9011E4B1A780F2313401D4A128892B258001C494252002A05D135
:400D400001329A401A49088802430A80002B02D0013BDBB200E00323124A11780F20814311701278D1B2032B01D1802200E000221A430A430B490A70032B12D10D4A117865
:400D800008230B43DBB21370094B1B880A4A12881A4206D0074A117880235B420B43DBB21370704771000F4080100F4020020020CE01002072000F40CC010020F0B55746A4
:400DC0004E464546E0B4002591E02C006E00514BF15A514800F0B8FA504BF35A1B1A1BB24F4A934204DB80225201934202DC03E04B4B01E080235B014A4A9046A2009446D0
:400E00006700494AB95E594342466646B25891464944B946C1444A461026925F9246434ABA5E5646724389184A461826925F404EBE5F56438A194146664672504946564673
:400E40000E830B823B4B6146CB589A4203DA62464146535007E0A30037495B589A4202DDA20030495350A3002E4A9A58120C334959580B68324E3678760600D40A60F0227E
:400E8000920093420BD162002449525A904206D22021244B1B195A5C01325A5417E0002B10D163001D4A9B5A98420BD91D4B1B1920229B5CFF2B0AD01A4A121901332021F2
:400EC000535404E0174B1B19002120229954154B1B1920229B5C102B07D9FFF745FE0123A340184080B20F4B98840135EDB2032D00D86AE70B4B9B8C9BB2002B05D0104A07
:400F0000117810230B43DBB213701CBC90469946A246F0BD2002002080C3C9012802002000F0FFFFD40100204002002018020020480200203002002050020020B42000005B
:400F400072000F40014B58647047C0460000002010B5040000F0F1F9044A1168044B0B40A4031C43146000F0ECF910BD00E400E0FF3FFFFF0222014B1A60704700E100E049
:400F80000222014B1A60704780E100E010B50400FFF7F6FF2000FFF7D5FF0320FFF7D8FFFFF7E8FF10BDC046014B98647047C0460000002010B5040000F0BFF9044A1168B4
:400FC000044B0B40A4051C43146000F0BAF910BD00E400E0FFFF3FFF0422014B1A60704700E100E00422014B1A60704780E100E010B50400FFF7F6FF2000FFF7D5FF032062
:40100000FFF7D8FFFFF7E8FF10BDC0460004000C014B18607047C046080120400004000C014B18607047C046140120400004000C014B18607047C0460C01204070B504000C
:401040000D0000F07AF9AC40024B1C6000F079F970BDC0460800204010B500F06EF9064A116801230B43136000F06BF918210120FFF7E4FF10BDC04600002040014B186006
:401080007047C0463801204010B50D4C8023DB042360236823600020FFF7B8FF236823600C22084B1A600020FFF7E8FF3122064B1A60FF20FFF7B2FF4020FFF7B7FF10BD19
:4010C0000001204024012040280120400004000C014B18607047C046880120400004000C014B18607047C046940120400004000C014B18607047C0468C01204070B50400DA
:401100000D0000F01AF9AC40024B1C6000F019F970BDC0460800204010B500F00EF9064A116804230B43136000F00BF918210420FFF7E4FF10BDC04600002040014B1860BF
:401140007047C046B801204010B50E4C8023DB042360236823600020FFF7B8FF236823600C22094B1A600120FFF7E8FF3122074B1A60074C2000FFF7B1FF2000FFF7B6FF8F
:4011800010BDC04680012040A4012040A8012040FFFF00000004000C014B18607047C046480120400004000C014B18607047C046540120400004000C014B18607047C0465E
:4011C0004C01204070B504000D0000F0B6F8AC40024B1C6000F0B5F870BDC0460800204010B500F0AAF8064A116802230B43136000F0A7F818210220FFF7E4FF10BDC046E5
:4012000000002040014B18607047C0467801204010B50E4C8023DB042360236823600020FFF7B8FF236823600C22094B1A600120FFF7E8FF3122074B1A60074C2000FFF765
:40124000B1FF2000FFF7B6FF10BDC046400120406401204068012040FFFF00000004000C014B18607047C046C80120400004000C014B18607047C046D40120400004000C63
:40128000014B18607047C046CC01204070B504000D0000F052F8AC40024B1C6000F051F870BDC0460800204010B500F046F8064A116808230B43136000F043F81821082053
:4012C000FFF7E4FF10BDC04600002040014B18607047C046F801204010B50E4C8023DB042360236823600020FFF7B8FF236823600C22094B1A600120FFF7E8FF3122074B5C
:401300001A60074C2000FFF7B1FF2000FFF7B6FF10BDC046C0012040E4012040E8012040FFFF0000000000000230800803D00138FDD1C046C046C0467047EFF3108072B6D8
:40134000704780F310887047002243088B4274D303098B425FD3030A8B4244D3030B8B4228D3030C8B420DD3FF22090212BA030C8B4202D31212090265D0030B8B4219D311
:4013800000E0090AC30B8B4201D3CB03C01A5241830B8B4201D38B03C01A5241430B8B4201D34B03C01A5241030B8B4201D30B03C01A5241C30A8B4201D3CB02C01A5241EA
:4013C000830A8B4201D38B02C01A5241430A8B4201D34B02C01A5241030A8B4201D30B02C01A5241CDD2C3098B4201D3CB01C01A524183098B4201D38B01C01A524143093E
:401400008B4201D34B01C01A524103098B4201D30B01C01A5241C3088B4201D3CB00C01A524183088B4201D38B00C01A524143088B4201D34B00C01A5241411A00D201464C
:40144000524110467047FFE701B5002000F006F802BDC0460029F7D076E770477047C046014B18687047C0467C0100200E4B70B500251E000D4CE41AA410A54204D0AB0044
:40148000F35898470135F8E700F040FE084B00251E00084CE41AA410A54204D0AB00F35898470135F8E770BD18210000182100001821000020210000002310B59A4203D0CE
:4014C000CC5CC4540133F9E710BD03008218934202D019700133FAE7704700000EB410B59DB002A9029008610B48822488604861012040421FABC881084804CBA40000684D
:4015000001938C8100F06EF80023029A13701DB010BC08BC03B01847FFFFFF7F7C010020F0B58E6885B007000C00039201939E4243D890238A89DB001A423ED0032509693E
:40154000236801985B1A029363695D43EB0F5D19029B6D1001331B18AB4200D91D00530510D52900380000F037FB061E14D0029A2169FFF7A1FFA289194B1340802213439F
:40158000A38112E02A00380000F086FB061E0CD12169380000F0D4FA0C23402201203B60A38940421343A38117E0029B2661F61826606561019EED1AA560019BB34200D2C9
:4015C0001E0032000399206800F0A5FA0020A3689B1BA36023689E19266005B0F0BDC0467FFBFFFFF0B59FB0029005938B890F0016001B0610D50B69002B0DD1402100F031
:40160000EBFA38603861002804D10C23029A01381360D8E040237B61002306AD6B6120336B761033AB7634002378002B03D1A31B049312D003E0252BF9D00134F4E7A31B20
:40164000320039000298FFF76BFF431C00D1B4E06A69049B944663446B612378002B00D1ABE00122002352426A6002A95432521801342B60EB60AB601370AB65534E21783E
:401680000522300000F03CFA002807D00123801B83402A68013413432B60EFE72B68DA0604D55322202102A8121811701A0704D553222B2102A81218117022782A2A03D086
:4016C000099B00200A210EE0059A111D12680591002A01DB099204E05242EA60022213432B6001340BE02278303A092A04D84B4301349B180120F6E7002800D009932378F2
:401700002E2B1ED163782A2B0AD1059B02341A1D1B680592002B01DA01235B42079310E000230A201A0001346B6021783039092904D84243013452180123F6E7002B00D047
:401740000792234E21780322300000F0D9F9002806D04023801B83402A68013413432B60217806221B48661C297600F0C9F9002812D0194B002B06D10722059B0733934308
:401780000833059314E005AB00933A00134B2900029800E000BF07E005AB00933A000F4B2900029800F08AF80390039B013304D06B69039A9B186B6135E7BB890B985B06A5
:4017C00001D5012040421FB0F0BDC046D6200000DC200000E02000000000000021150000F7B5170001938A680B6900900C00934200DA130022003B6043321278002A01D0F4
:4018000001333B6023689B0602D53B6802333B60062523681D401ED0230043331B785A1E9341226892061CD53020E1184331087021005A1C45310978A2184332023311702F
:401840000FE022000123193201990098089EB047431C0ED00135E3683A689B1A9D42F0DBDAE72200019943320098089DA847431C02D10120404220E006232068E1683A68CB
:4018800003400025042B03D18D1AEB43DB171D40A3682269934201DD9B1AED180027BD420AD0220001231A3201990098089EB047431CDED00137F2E70020FEBDF0B58BB05C
:4018C00006920A0043320793059004920A7E0C00109B6E2A00D1ABE011D8632A22D009D8002A00D1B5E0582A00D0C5E045310A70814A4FE0642A1DD0692A1BD0BCE0732AED
:4019000000D1AAE009D86F2A29D0702A00D0B3E0202209680A43226037E0752A1FD0782A33D0A9E00E001A684236111D196013683370A4E021681A68080606D4490604D51B
:40194000111D19600023D55E02E0111D19601568002D3BDA2D23049A6D42137036E021681A68080606D4490604D51568111D1960ADB202E0111D196015685F4B227E039368
:4019800008276F2A1DD00A271BE022007821453211705A4A19680392081D226818600D68100602D4500600D5ADB2D30702D520231A4322601027002D03D1202322689A4312
:4019C00022602300002243331A7002E00A274A4B03936368A360002B09DB0422216891432160002D05D1049E002B11D07BE0002D79D0049E28003900FFF72CFD039B013E80
:401A00005B5C280033703900FFF79EFC051EF1D1082F09D12368DB0706D563682269934202DC3023013E3370049B9B1B23612BE009681A68080607D4490605D5111D19604F
:401A40001368A28A1A8004E0111D1960136862691A600023049E236116E01A68111D1960166800216268300000F04AF8002801D0801B6060636803E0260042363270012341
:401A800023610023049A1370079B09AA00932100069B0598FFF7A4FE431C02D10120404227E02369320006990598079DA847431CF4D0236800259B070FD4099BE0689842F8
:401AC00017DA180015E022000123193206990598079EB047431CE1D00135E368099A9B1A9D42F0DBE9E72600039B42361B7833708EE70BB0F0BDC046E7200000F8200000A8
:401B0000C9B28218904204D003788B4202D00130F8E70020704710B5884202D98B18984201D3002305E09B1A013A08D3995C8154FAE7934203D0CC5CC4540133F9E710BDE7
:401B400070B50500002944D00C1F2368002B00DAE418280000F0D8F81E4A13681100002B02D16360146031E0A3420DD92268A018834203D118685B688218226063600C60F1
:401B800024E0A24203D813005A68002AF9D11E689819A0420BD12168711858181960824214D110685268411819605A600EE0A04202D90C232B6009E021686018824203D15B
:401BC000106852684118216062605C60280000F09CF870BD00020020032370B5CD1C9D43083506000C2D01D20C2501E0002D01DBA94202D90C23336048E0300000F084F896
:401C0000234B1C681A002100002913D00B685B1B0DD40B2B02D90B60CC181EE08C4202D1636813601AE04B6863600C0016E00C004968E9E7174C2368002B03D1300000F058
:401C400051F820602900300000F04CF8431C18D00323C41C9C43A0420DD12560300000F054F8200007220B30231D9043C31A0ED05A42E2500BE0211A300000F033F8431C41
:401C8000EBD10C233000336000F03FF8002070BD00020020FC010020F8B506000C001500002904D11100FFF797FF040018E0002A03D1FFF745FF2C0012E000F027F885422C
:401CC0000ED929003000FFF787FF071E07D021002A00FFF7F1FB21003000FFF731FF3C002000F8BD002370B5064C050008002360FEF7D6FB431C03D12368002B00D02B6043
:401D000070BDC04660020020704770470B1F1A68101F002A04DA891804390B68D018043870470000000000002575000080300F40800300400F40000400300F40042000001F
:401D40008000000082038220860488208A108C058E0A93019502960197019E02A208A403A60CAA10AB02B00FB220B410B503B808C042C106C205C609C804C9FFCAFFCBFF10
:401D8000CC0FCD0FCE0FCF01D283D380D80DD90DDA0DDB0DDC33DD33DF01E040E1A8E240E320E440E5A8E640E720E840E920EA10EB80EC40EDA8EE40EFA800440505070958
:401DC0000A020B200C080F01108612201310151016801704180419401A021B141D091F102008212022202310270828042A442D102F08316032063501370838463B2040C47C
:401E000044804520480449804D804F2050035480554056406F0575027A087E088F01C0F5C2A5C47FCA2ECCCFCE0FD0A5D23CDE24E204E41002080A040E0312021A101C02A0
:401E40001E0122012A042E1030033210340836043E44404341064762483049FF4AFF4BFF4CEA4D044F04500852BF53185403560458045A0D5B045C015D135F016040614092
:401E800062806460654066A0681069506A906B506C206EA06F08842086038B018C128E24940E9610970198409E10A302A420A61DA701AA40AE0AB03FB102B301B440B601F4
:401EC000C036C104C660C702C818C9FFCAFFCBFFCCEACD04CF04D008D80DD90DDA0DDC33DD03DF01E6A0E840E940EA90EB50EC60ED40EEA0EF0800440510060107800A06C9
:401F00000B200E4A11801224151016021701184019801A041B101D101E601F402104220629022B10300838203BC041044302450948084F2050185501570A5E205F40620C3F
:401F400066016D106E0A6F01760677807A087E088A049004920293209440960899029D809E04A148A220A60AA708A808AB04AE80B504C0D5C2D7C4D7CA03CC02CE04D0C3CC
:401F8000D224D630D880DE24E280E606E8100001030409010D0880108F04C050C230E2205010581067026F2071408301841089409020A320A801AB20AD08B501D4A0D680C9
:401FC000DA80DC20E660E8C0EE20101214088002C40B800884109818010A100A01000F403A300F403D310F4061320F404C330F4009400F4015410F4004420F4003430F4032
:4020000002600F40000100001E1B202400020004062C301000800000088014400035000A040802000000080022001C400000028102000120000001C0383F06000000A00046
:402040000000000046020500000000E020FFFFFF0000000100000000000000000D0D0D003303000140A8402040A840204020108040A840A800000000000000000000000067
:4020800000000000030405060708090A0B0C0E0F101112131415161718191B1C1D1E1F2021222325262728292A2B2E2F30313233343500000C0120408C0120404C01204029
:4020C000CC012040140120409401204054012040D40120404300232D302B2000686C4C006566674546470030313233343536373839414243444546003031323334353637EF
:40210000383961626364656600000000F8B5C046F8BC08BC9E467047AD02000019050000F8B5C046F8BC08BC9E4670478502000040210000C0000020C0000000E800000010
:402140000000000068020020010000000000C05D80BB000030000000006CDC02F000000004040400301180257C1510275600401F9821301180257C15102756004C1D082055
:40218000301180257C1510275600401F9821301180257C1510275600401F98210000000000000000000000000000000000000000000000000000000000000000D4200000F3
:4021C0000000000000000000000000000000000000000000000000000000000000000000000000000000000000000000000000000000000000000000000000001C010020A2
:40220000000000000000000000000000000000000000000000000000000000000000000000000000000000000000000000000000000000000000000000000000000000009E
:40224000000000000000000000000000000000000000000000000000000000000000000000000000000000000000000000000000000000000000000000000000000000005E
:40228000000000000000000000000000000000000000000000000000000000000000000000000000000000000000000000000000000000000000000000000000000000001E
:4022C00000000000000000000000000000000000000000000000000000000000000000000000000000000000000000000000000000000000000000000000000000000000DE
:020000040003F7
:0200000490303A
:02000000BF94AB
:0200000490402A
:4000000000000000000000000000000000000000000000000000000000000000000000000000000000000000000000000000000000000000000000000000000000000000C0
:400040000000000000000000000000000000000000000000000000000000000000000000000000000000000000000000000000000000000000000000000000000000000080
:0200000490501A
:0C00000000021A1711AA00011A21D13EBB
:0200000490600A
:0100000001FE
:00000001FF