:400000000080002011000000210400002104000008B5044B1A6803F53F5302331A6000F01FFA00BFFA46004010B5054C237833B9044B13B10448AFF300800123237010BD14
:400040007881FF1F00000000E0140000084B10B51BB108490848AFF300800848036803B910BD074B002BFBD0BDE81040184700BF000000007C81FF1FE0140000C880FF1FBA
:40008000000000002DE9F041012523E05FFA85F8404600F073FB0246134F3860134E144C3146204600F0F8FD204600F085FD202000F076FD404600F059FB024638603146B5
:4000C000204600F0E9FD204600F076FD202000F067FD0135042DD9DD0A2000F061FD0D2000F05EFDBDE8F081D481FF1FE4140000E481FF1F10B500240EE0094B33F81410DC
:40010000A1F2D1739BB240F62C12934203D8601CC0B200F093FA0134032CEEDD10BD00BFDC81FF1F70B562B60025224B1D6000F00FFB00F011FD2E4600F01CFD0446702833
:4001400003D100221C4B1A7029E0732803D10122194B1A7023E0202806D1184B23F81650013676B200251AE00D280CD1032E02D1124B23F81650FFF7BDFF0A2000F010FDBE
:40018000002635460BE0A0F13003DBB2092B06D805EB85056B009DB20544303D2DB2064B93F9003013B1FFF76DFFC5E7204600F0F7FCC1E7D481FF1F9481FF1FDC81FF1F96
:4001C000FEE700BFF0B40022174611E050F82760F3B226F0FF0608E001EB420511F812406D78A5550132013BDBB2002BF4D101371D2FEBD9F0BC7047064B1B78DBB203F068
:400200000701054A11701B09013213704422034B1A707047CF0100496E5800407658004008B50A46002100F02EFD08BD38B50024284B1C80582202331A70192502331D8073
:400240001823254A13702F2102321180023213700222224B1A7008224FF040231A70032103F5007319701E4B1B78DBB21D490B701D4B1A8041F25122023B1A800CE01B4BC1
:400280001B7803F0010343EA440404F003044FF4F07000F0B1FC013D0DB1032CEFD115B90320FFF78DFF124B4FF480721A8007221A7000220F490A704820023108701A7036
:4002C0000222033B1A700C4A137843F00703137038BD00BF80400040864000400043004008010049A146004022420040254200400440004006400040A243004008B500F094
:40030000B7FC08BD38B572B6354A137843F00403137000240CE0334D630019194A0011462A44084691882858FFF77AFF0134E4B20A2CF0D900240CE02A48A20011194B007C
:400340000344B3F84C20996C586CFFF7D7FF0134E4B2012CF0D924494FF09040FFF732FF04212248FFF75CFF214A137843F0020313701032137843F0020313701D4C237809
:4003800043F040032370A2F58632513A137843F0100313700A2218491848FFF7AFFF082217491848FFF7AAFF0A2217491748FFF7A5FF174A137843F008031370154D6123D4
:4003C0002B70FFF733FF81232B700122124B1A70FFF712FF0E2221461048FFF78FFF38BDE8460040E8140000780000480076004003500140A0430040340B0048C051004013
:40040000400B004812510040480B004830510040224300400048004004000840B043004008B500F0F9FB03680C2B00D1FEE7FEE708B5094B1A681044084BC31A802B02DC00
:40044000054B186005E000F0E7FB0C2303604FF0FF32104608BD00BFCC80FF1F3882FF1F08B5104E104D16E029686B68AC68002204E051F8040B43F8040B0432A242F8D16E
:40048000E868002203E0002143F8041B04328242F9D11035013E002EE6D100F0C3FBFFF741FEFEE701000000BC15000008B5114A114B1A60114A136843F4007313600023A1
:4004C0000AE0032B03D80E4A52F8231000E00D490D4A42F8231001332F2BF2D90B4B1A780B4B1A70084A0B4B1A60FFF70BFF00F035FA08BD0004FA050CED00E014ED00E056
:4005000000000000210400000080FF1FBC760040C080FF1F08ED00E070B582B015461E4600240194009423460A460146204600F083FA32462946204600F058FA0221204605
:4005400000F042FA204602B070BD00BF10B5254B1B0C4FF4804201210220FFF7DDFF224B1870002406E000F089FA1F4B234418710134E4B2032CF6D9002419E0C4F1030367
:4005800013F0FF0308D1184AD0180623D2790221007900F08DFA09E0134AD018013B1A44022312791946007900F082FA0134E4B2032CE3D900240CE00B4B2344094A02EB0D
:4005C000440292B246F60401187900F085FA0134E4B2032CF0D9044B1979187800F020FA10BD00BFF081FF1F9881FF1F10B52122094B1A7000F008FB0446084A137843F06D
:40060000100313700121064B187800F0C1F9204600F0FEFA10BD00BF74640040976500409881FF1FC0B2014B1870704777640040014B1878704700BF77640040042803D886
:400640000138024B23F81010704700BFF881FF1F38B5FFF77BFF002414E0334D05EBC4052B694FF470721A8000F0CEFA6A6913889BB243F4407343F00303138000F0C8FAD0
:400680000134E4B2012CE8D900230BE05C1CE4B2C3EBC3035A00254B1A4451892046FFF7CDFF2346032BF1D900F0AEFA204A137843F02003137000F0ABFA3C221D4B1A701B
:4006C0000A2210331A70FA22A3F588731A70012210331A700F20FFF7A5FF00241EE000F093FA4FF40052144B23F814204EF69A12124B23F8142040F23332114B23F814204F
:400700004FF0C0720F4B43F824204FF070720E4B43F8242000F07CFA0134E4B2032CDED90A4800F00DF938BD40150000D080FF1F93640040276500401082FF1FE881FF1F25
:400740001882FF1F0082FF1F2082FF1FA507000008B5054B1B7A23B9FFF77AFF0122024B1A72FFF743FF08BD9881FF1F0138024B33F81000704700BFF881FF1F042809D8BD
:400780000138064B33F8100030B1054BB3FBF0F080B270470020704700207047F081FF1F80C3C901F8B500258BE02C464B4B33F815304B4EB6FBF3F64A4B33F815309B1BDF
:4007C0001BB213F5805F03DBB3F5805F02DC03E0454B01E04FF48053444F57F82410444A32F9142002FB031207EB4400B0F910E0404931F9141001FB0E22B0F91810DFF809
:4008000008C13CF914C00CFB012247F82420A0F818E00382384B53F824309A4202DA47F8243007E0354B53F824309A4202DD2F4A42F824302D4B53F824301A0C304B53F8EC
:4008400024100B889BB22F48007810F0400F00D10A80B3F5707F0CD1224A32F81420964207D2224B234493F82020013283F8202016E083B91B4B33F814309E420BD91B4B1E
:40088000234493F82030FF2B0AD0184A2244013382F8203004E0154B2344002283F82020124B234493F82030102B08D9FFF7C0FE012303FA04F4204084B20C4B9C840135D9
:4008C000EDB2032D7FF671AF084B9B8C9BB223B10C4A137843F010031370F8BDF081FF1F80C3C901F881FF1F00F0FFFFA481FF1F1082FF1FE881FF1F0082FF1F2082FF1F9F
:4009000040150000746400401882FF1F014B1B681864704708ED00E04001C0B2014B1870704700BF00E400E00122014B1A60704700E100E00122014B1A60704780E100E0B8
:4009400010B50446FFF7F6FF2046FFF7DFFF0720FFF7E2FFFFF7E8FF10BD00BF0B4A7F2313708021517007E0DA0002F1804202F5F042013BDBB21370002BF5D1DB0003F155
:40098000804303F5F04300221A7070470881FF1F172815D831B103010A495A5C42F020025A5405E0030107495A5C02F0DF025A540001044A835C43F001038354002070479F
:4009C000012070471070004017280BD80001064A835C03F0F103490001F00E011943815400207047012070471070004041F6FF73994201D14FF4005141F6FF739A4201D1FC
:400A00004FF40052172808D8C00000F1804000F5EC408180C280002070470120704700BF172805D8034B03EB0010417200207047012070471070004017281BD810B4C0007F
:400A400000F1804404F5EC44D201D2B201F07F01114321709DF804201201D2B203F00F03134363709DF8083003F00F03A3700020E07001E00120704710BC704710B500F027
:400A8000C3F80A4B5B78182B0BD9084A1478013B5370E30003F1804303F5F0431B78137000E0FF2400F0B4F8204610BD0881FF1F10F0800F0CD111F4704F0BD1C00000F13E
:400AC000804000F5F04001808270C37000207047012070470120704710F0800F08D1C00000F1804000F5F0408180C28000207047012070477222084B1A70202203F2031336
:400B00001A700622A3F267131A70472210331A70002255331A7070478864004010B500F073F804460B4A137843F02003137002F20312137843F010031370A2F58172137888
:400B400043F01003137000F049F8204600F060F810BD00BF9864004008B5054B1B7823B9FFF7C8FF0122024B1A70FFF7D7FF08BDCA81FF1F084B1B78DBB213F0200F06D05D
:400B8000064A1078C0B213F01E0F02D17047002070470020704700BF6B6500404B650040034B1B7813F0040FFAD1024B18707047696400404964004038B5074B1B782BB9C6
:400BC00038BDFFF7EDFF0134A4B201E005460024285D0028F5D138BDCA81FF1F054A137843F0020313701032137843F002031370704700BFA24300400230800803D000BF6E
:400C000001380046FCD17047EFF3108072B6704780F31088704700BF014B1868704700BF7081FF1F0E4B70B51E460E4C0025E41AA410A54204D056F8253098470135F8E729
:400C400000F0AAFC084B094C1E46E41AA4100025A54204D056F8253098470135F8E770BDA4150000A4150000A4150000AC15000010B5431E0A44914204D011F8014B03F825
:400C8000014FF8E710BD03460244934202D003F8011BFAE7704700000EB400B54FF402719CB0ADF814106FF00041049107914FF6FF711DAB02900690084853F8042BADF830
:400CC0001610006802A9019300F064F8029B00221A701CB05DF804EB03B070477081FF1F2DE9F0478E6882469E420C46914698463ED88A8912F4906F3AD0256809690223BB
:400D00006F1A656905EB450595FBF3F57B1C43449D4238BF1D4653050FD5294600F040FB064698B13A462169FFF7A2FFA38923F4906343F08003A38113E02A4600F08EFB5B
:400D4000064670B92169504600F0DEFA0C23CAF80030A3894FF0FF3043F04003A381BDE8F08726613E44266046466561ED1BA560464528BF464649463246206800F0A8FA98
:400D8000A36800209B1BA36023681E442660BDE8F08700002DE9F04F9DB003938B8980461C060D4616460DD50B695BB9402100F0F7FA2860286118B90C23C8F80030CDE083
:400DC00040236B610023099320238DF82930DFF89CB130238DF82A3037463C4614F8013B1BB9B7EB060910D003E0252BF9D02746F3E74B46324629464046FFF771FF01300A
:400E000000F0A780099B4B4409933B78002B00F0A08000234FF0FF3204930793059206938DF853301A930126052221784E4800F041FA671C049B38B14B4A3C46801A06FAD1
:400E400000F018430490EFE7D90644BF20228DF853201A0744BF2B228DF8532022782A2A03D0079A00210A200BE0039A111D12680391002A10DA524243F0020007920490BD
:400E80000BE027463B780134303B092B03D800FB02320121F5E701B107923B782E2B1ED17B782A2B0AD1039B02371A1D1B680392002BB8BF4FF0FF33059310E0002319469F
:400EC0000593781C0A2407463A780130303A092A03D804FB01210123F5E703B1059103223978224800F0E6F940B14023CBEB000003FA00F0049B01371843049039780622E0
:400F00001B487E1C8DF8281000F0D4F988B1194B33B9039B073323F007030833039314E003AB00932A46144B04A94046AFF3008007E003AB00932A460F4B04A9404600F07D
:400F400093F8B0F1FF3F824603D0099B5344099342E7AB895B0601D4099801E04FF0FF301DB0BDE8F08F00BF62150000681500006C15000000000000E10C00002DE9F047B3
:400F800091461F460A698B6806469342B8BF1346C9F8003091F843200C46DDF8208012B10133C9F800302368990642BFD9F800300233C9F80030256815F0060510D104F14D
:400FC000190A07E00123524639463046C04701301AD00135E368D9F800209B1A9D42F1DB94F843302268003318BF012392060FD5E118302081F843005A1C94F8451022444D
:40100000023382F8431003E04FF0FF30BDE8F08704F1430239463046C0470130F4D02268D9F80050E36802F00602042A08BF5D1B2269A3680CBF25EAE57500259342C4BF72
:401040009B1AED184FF000091A344D4509D00123224639463046C0470130D5D009F10109F3E70020BDE8F0872DE9F04317460A7E85B06E2A984606460C460C9B01F1430EDC
:4010800000F0AE8011D8632A22D009D8002A00F0BB80582A40F0CA8081F84520834955E0642A1ED0692A1CD0C0E0732A00F0B08009D86F2A2ED0702A40F0B8800A6842F023
:4010C00020020A603EE0752A24D0782A3AD0ADE01A6801F14205111D1960136884F84230A8E021681A6811F0800F02D0111D196008E011F0400F02F10401196002D0B2F9ED
:40110000003000E01368002B3CDA2D225B4284F8432037E021681A6811F0800F02D0111D196007E011F0400F02F10401196001D0138800E01368227E5C496F2A14BF0A22A1
:4011400008221BE078225A4984F845202268186812F0800F00F104051D6003D1550601D5038800E00368D00744BF42F0200222601BB9226822F0200222601022002084F8AD
:40118000430001E049490A226568002DA56008DB206820F0040020602BB9002D7DD175460CE0002B79D07546B3FBF2F002FB1033CB5C05F8013D03460028F5D1082A0BD1A3
:4011C0002368DA0708D5236962689A42DEBF302305F8013C05F1FF35C5EB0E0323612EE008681A6810F0800F496903D0101D1860136808E010F0400F02F104001860136886
:4012000001D0198000E0196000232361754616E01A68111D1960156800216268284600F049F808B1401B6060636804E004F1420584F8422001232361002384F84330CDF847
:4012400000803B4603AA21463046FFF797FE013002D14FF0FF3026E023692A4639463046C0470130F5D023689B0710D5002504F1190907E001234A4639463046C0470130DC
:40128000E7D00135E368039A9B1A9D42F2DBE068039B9842B8BF184605E00B7804F1420584F842308AE705B0BDE8F083731500008415000010B5C9B202449042034605D0FC
:4012C0001C7801308C42F8D1184610BD002010BD884210B501EB020301D8421E0BE09842FBD28118D21AD34204D013F8014D01F8014DF8E710BD994204D011F8014B02F877
:40130000014FF8E710BD000038B50546002944D051F8043C0C1F002BB8BFE41800F0D4F81E4A1368114613B96360146030E0A3420DD92268A018834201BF18685B681218E2
:40134000226063600C6023E0A24203D813465A68002AF9D118681918A1420BD12168014458188242196013D110685268014419605A600DE002D90C232B6009E02168601806
:40138000824201BF106852680918216062605C602846BDE8384000F098B838BDD081FF1F70B5CD1C25F0030508350C2D38BF0C25002D064601DBA94202D90C23336046E05C
:4013C00000F082F8234B1C681A462146A1B10B685B1B0ED40B2B03D90B60CC18CD501EE08C420BBF63684B681360636018BF0C4615E00C464968E9E7174C23681BB93046BC
:4014000000F052F820602946304600F04DF8431C18D0C41C24F00304A0420DD12560304600F053F804F10B00231D20F00700C31A0ED05A42E25070BD211A304600F034F8C6
:401440000130EBD10C233360304600F03EF8002070BD00BFD081FF1FCC81FF1FF8B5074615460E4621B91146BDE8F840FFF798BF1AB9FFF749FF2846F8BD00F027F885422D
:401480000ED929463846FFF78BFF044650B131462A46FFF7EDFB31463846FFF735FF01E03046F8BD2046F8BD38B5064C0023054608462360FEF7BCFF431C02D1236803B1E3
:4014C0002B6038BD3082FF1F7047704751F8040C0028BEBF091851F8043CC018043870470000000025750000005100401000205100401000405100403000F051004010002D
:4015000000000140800600070140000900140140800200170140000500400140000A004C01400002005001402000000080060140340A0048800080160140B40A004880006A
:4015400044650040546500404064004050640040146500409465004010640040906400404300232D302B2000686C4C006566674546470030313233343536373839414243D2
:40158000444546003031323334353637383961626364656600000000F8B500BFF8BC08BC9E4670474D000000AD040000F8B500BFF8BC08BC9E46704729000000D0150000F0
:4015C000C880FF1FB0000000C000000000000000000000003882FF1F9808C0127C151027AD00A00F98219808C0127C151027AD00A00F98219808C0127C151027AD00A00F09
:4016000098219808C0127C151027AD00A00F98217F80000001000000000000000000000000000000000000000000000000000000000000000000000060150000000000002D
:4016400000000000000000000000000000000000000000000000000000000000000000000000000000000000000000000000000000000000000000001081FF1F00000000BB
:40168000000000000000000000000000000000000000000000000000000000000000000000000000000000000000000000000000000000000000000000000000000000002A
:4016C00000000000000000000000000000000000000000000000000000000000000000000000000000000000000000000000000000000000000000000000000000000000EA
:4017000000000000000000000000000000000000000000000000000000000000000000000000000000000000000000000000000000000000000000000000000000000000A9
:401740000000000000000000000000000000000000000000000000000000000000000000000000000000000000000000000000000000000000000000000000000000000069
:020000040003F7
:0200000480007A
:400000000452004003640040026500404D0001402F0101405E020140490301404404014043050140060601404C070140450801403D0901404F1401404515014017160140FA
:400040005817014040180140451901404A1A0140451B0140074001400741014003420140044301400348014014490140094D0140095001400251014018A0193061806440BE
:4000800083038872890F87038B38021006020A300B030C0F120113061620180F1E302204230525062608270128032A0C2B012C052E0A2F02300F343035073B20400443448C
:4000C00049FF4AFF4BFF4D20580E59045A045C125F01604061406240636C86048C0190049301940897029C08A202A401AA09AD02B006B208B401B503B828C004C344C550B7
:40010000C612C704C83EC9FFCAFFCBFFCC0FCD2FCE0FD804D904DA04DC90DF01E040E140E240E36C00800126040A05020602080209800A040B100D080E800F021158128043
:4001400014081628170219201A401E801F1A211024082704281029012A502F02330137063920428046804F02550856A278088B10C0AFC2BFC47FCA1FCCC1CE04D081DE024E
:40018000E22010031F012101220126023203370139804056410149FF4AFF4BFF4F01580459045A0E5C805D025F11604061A862406320644065A866406720684069206A1051
:4001C0006B806C406DA86E406FA88205850188218A428C448E82921096A09A409D019E02A208A642A901AA08AD01AE18B007B4E0B501B618B920C056C101C709C810C9FFEA
:40020000CAFFCBFFCC0FCD0FCE0FCF01D602D720D80ED904DA0EDB0EDC02DD22DF01E040E1A8E240E320E440E5A8E640E720E840E920EA10EB80EC40EDA8EE40EFA801528C
:4002400008040A0A0B400E80100112201311170619521A801F0820042680280429902F40324037403B043C023E0241804401458049204A024B204C054D204E024F5052081F
:4002800061406301684169516A046B2078087C087D208B0191209240940295549604971098089B069C129D019E589F01A240A440A584A680AF02B308C00BC21FC43FCA8CC4
:4002C000CC18CE02D018D23CD808DE62E280EA2000210180020803420501060809200A030B400E300F101646172018091A101B041D601E461F86200121102608276628012C
:400300002B092C042D102F08300131183206330134403506363837E04003460449FF4A074BFF4C404D204EF04F05500852375310540F580E590E5A045B045C225D015F0163
:40034000604061A862406320AE01B601B902BA80D804D904DC88DF11001A018009800B281101122013601740181019E21F402040218422A02740280829122B232D102F0409
:4003800032A8386239084108525058245B8269406A206B107110720978087D2087848D209004913192C09360940A9504960A978498049A029B209C129D819E589F41A00102
:4003C000A208A308A594A620A701C00FC207C48FCA0FCC0ECE0FD002D60FDE22E210120130013A0258045C085F310040020403A009800A900B080F80100111011288134847
:400400001508170818281A101B261C802180230428012A022B24300231803220384039113B0443024BA0520453C068066A0A78087D028020851088508A10904491789261A6
:400440009340942A9504960A970498089A1A9B109C129D019F01A2A8A308A404A50CA722A910AA40AB02AC20AD40B240C00FC21FC40FCA0FCC0DCE0FD001D20CDE82E00217
:40048000E604060107010D01110118011B012B0131013401382039203F0156025713580459045B045C885D105F118208840385108604880A8A048B089101930E9A059C037B
:4004C0009E0C9F0CA101A306A90CAB03AC03AE04AF03B310B50FB60FBA80BB20BF04C012C105C50CC6B0C70EC819C9FFCAFFCBFFCEF0CF44D00CD401D804D904DA04DB04DA
:40050000DC11DD11DF01E6C0EA40EB02012002A004040A050F0410011A011B401F10200822042404274029202A802B402D20300132803410362238083A203E043F804205B7
:400540004A225004532058105A085B425E026D106F117518760A7F08811084018602880489288A848C048F029A20B220C02EC243C401CA2DCCA9CE56D00CD208D68FDE20F9
:40058000E2A0E420EC800203050206040C100E08120817011A101B021E011F022203250226042A022F013018330234043501360339083E103F104003433349FF4AFF4BFFE0
:4005C0004D20580D59045A045C125F01604061406240636C800481028401860687038C068E019407980799029C06A201A402A901AD01B102B207B701B982C003C333C554E2
:40060000C620C701C83BC9FFCAFFCBFFCC0FCD2FCE0FD804D904DA04DC01DF01E040E140E240E36C00410310040805CA0A420B080C600F20100412801308142016801841E7
:4006400019101A801E2022182480270228022B102F0A302031403208362038083E083F0A422046204E204F025620570A7B048040821083108611870A89048C02924393083F
:40068000950496809864998A9A889B109D10A020A280A714AC84AF40C0BDC2EBC43ECA3ACC2ECEC2D042DE04E004E40CE6010004040106060C060E0113031407180619012E
:4006C0001A011C062201240230073301350239883A023B20580459045C815F3102800322058A09800A900C600F20120A1420168018021A061E802008210A250426202702B7
:4007000028102A102B402E402F0230803102321033083620370238043960410442044B204E035314588059105D805E80638078047B247F40802081028A408B018D088E80F6
:40074000900491689271940295049680972898709A189B109F01A080A180A288A328A50CA880A901AC02B040B501B740C0BDC2EDC433CA07CCAFCE0ED006D204D60CD8012A
:40078000DE84E201E604E810EA04EE02040C0504080309040C0F0D011002110414081701180F19081C011D0820032108220C25022603280429082C0C2D012E03300F3108BF
:4007C0003504370339803A823F01580459045C115F01840E880489108A028C028E0C90089202930398019D099F10A110A30CA514A80EA91CAB02AD0CAF11B001B11FB20E35
:40080000B51FBE01D804D904DC11DF01002001040201031004200548084009200A400B020C100E611110144015401608170418A01D401F0121222540268127042809292074
:400840002B602C452E042F08310232803408354037613A203D143F8082028320881089408B088F0591109204980199289A2A9B11A360A681AB40AF10B304B404B708C0E722
:40088000C2FAC4F2CAFFCCF9CE74E020E240E630E810EC20EE4002011101230135013601380239203A80580459045C885F118110841885088A018B638D1C8F629010920A83
:4008C0009304951C9761997F9D679E049F18A124A204A408A518A632A818A960AD40B018B204B31FB403B620B760BB08BE14C043C101C205C402C6ECC80CC9FFCAFFCBFF25
:40090000CC62CDA0CEF0CF41D00CD418D804D904DA04DB04DC11DD11DF01E640E702E910EA30EB10ED10EE10EF1201020420052007100E400F021518164019021A021D2083
:400940001E6220082401272029022D282E413201344436213D403EAA44404520462047444E02564057105C01640865407A0A7B018008822883408701881489448A918B20CC
:400980008F109020911095409641984499089A0A9B549F20A410B212B450B601C068C290C470CAF1CCF1CEF0D0F0D210D680D830DE04E230122033803C108802C410CC1056
:4009C000CE208B8094109882A780AE20B080EC408C109410988298829F04AB04E88098829F44B7400101030207445C0260816410800183028410950198829F44AD01C0F03D
:400A0000D6C0D8C0E020E280E640E8101080721088809210B610C408DC01E601EC0800070101080709010A070C0210071A071C02000310020003200015000A1800042008D0
:400A400001000001000040040600000000004004080200010B041410000120020400000209031000200040001F1C00030000308000000000450600000000020614FFFFFFB1
:400A8000EA04000408000F00000000000E0E0E0422020001000000000000A000404090506040A008000000000000000000000000000000001100220010002C10000C000007
:400AC00000004001400000020702080100000010000C08000000000300080000000006042E0011000003000C40103F002008000000000014620300000000600218FFFFFF33
:400B0000EA04000408000000030004000D040D0402020001404080006040A000105090502000A00800000000000000000000000000000000C00000C08000800000000000C5
:400B4000000B0B0000000000FF0000FFF000F00000000000000000000000000000000000000000000000000000000000000000000000000000000000000000000000000081
:400B80000000000000000000000000000000000000000000000000000000000000000000000000000000000000000000000000000000000000000000000000000000000035
:400BC00000000000000000000000000000000000000000000000000000000000000000000000000000000000000000000000000000000000000000000000000000000000F5
:400C000000000000000000000000000000000000000000000000000000000000000000000000000000000000000000000000000000000000000000000000000000000000B4
:400C40000000000000000000000000000000000000000000000000000000000000000000000000000000000000000000000000000000000000000000000000000000000074
:0200000490006A
:0400000000004005B7
:0200000490105A
:04000000BC90ACAF55
:0200000490303A
:02000000426656
:0200000490402A
:4000000000000000000000000000000000000000000000000000000000000000000000000000000000000000000000000000000000000000000000000000000000000000C0
:400040000000000000000000000000000000000000000000000000000000000000000000000000000000000000000000000000000000000000000000000000000000000080
:400080000000000000000000000000000000000000000000000000000000000000000000000000000000000000000000000000000000000000000000000000000000000040
:4000C0000000000000000000000000000000000000000000000000000000000000000000000000000000000000000000000000000000000000000000000000000000000000
:0200000490501A
:0C00000000012E16106900012E2152CFC5
:00000001FF